:020000040800F2
:10000000E0140020890100086B2B0008B7280008C5
:10001000692B00084D040008C145000800000000DD
:100020000000000000000000000000002530000873
:100030005F06000800000000D52E000827300008E9
:10004000A3010008A3010008A3010008A301000800
:10005000A3010008A3010008A3010008A3010008F0
:10006000A3010008A3010008A30100083506000849
:10007000A3010008A3010008A3010008A3010008D0
:10008000A3010008A301000815030008A30100084C
:100090005D450008A3010008A3010008A3010008B2
:1000A000A3010008A3010008A3010008A3010008A0
:1000B000A1320008A3010008A3010008A301000861
:1000C000A3010008A3010008A3010008A301000880
:1000D000A3010008A3010008A3010008A301000870
:1000E000A3010008A3010008A301000800F002F822
:1000F00000F03AF80AA090E8000C82448344AAF188
:100100000107DA4501D100F02FF8AFF2090EBAE885
:100110000F0013F0010F18BFFB1A43F0010318473B
:10012000785D0000985D0000103A24BF78C878C15F
:10013000FAD8520724BF30C830C144BF04680C60ED
:10014000704700000023002400250026103A28BF35
:1001500078C1FBD8520728BF30C148BF0B60704739
:100160001FB51FBD10B510BD00F09EF81146FFF77A
:10017000F7FF04F03BFC00F0BCF803B4FFF7F2FF1C
:1001800003BC00F0BFF80000094880470948004759
:10019000FEE7FEE7FEE7FEE7FEE7FEE7FEE7FEE737
:1001A000FEE7FEE704480549054A064B7047000094
:1001B00059320008ED000008E00E0020E014002095
:1001C000E0100020E010002010B5203AC0F00B80B5
:1001D000B1E81850203AA0E81850B1E81850A0E84B
:1001E0001850BFF4F5AF5FEA027C24BFB1E81850A5
:1001F000A0E8185044BF18C918C0BDE810405FEA15
:10020000827C24BF51F8043B40F8043B08BF704790
:10021000D20728BF31F8023B48BF11F8012B28BF95
:1002200020F8023B48BF00F8012B70474FF0000256
:1002300000B5134694469646203922BFA0E80C50DC
:10024000A0E80C50B1F12001BFF4F7AF090728BFB7
:10025000A0E80C5048BF0CC05DF804EB890028BF33
:1002600040F8042B08BF704748BF20F8022B11F05C
:10027000804F18BF00F8012B7047704770477047D8
:1002800010B500F009F8006810BD10B5044600F084
:1002900003F8046010BD0000004870477C0E002089
:1002A000004870477C0E00207546FFF7F9FFAE4608
:1002B00005006946534620F00700854618B020B572
:1002C000FFF770FFBDE820404FF000064FF0000739
:1002D0004FF000084FF0000B21F00701AC46ACE8EE
:1002E000C009ACE8C009ACE8C009ACE8C0098D465B
:1002F000704710B50446AFF300802046BDE81040BB
:10030000FFF73BBF01491820ABBEFEE72600020005
:1003100070470000014800F071BA00001001002091
:1003200070B5044600688168C943C9071BD181685C
:1003300021F00101816000F0AFFE05460EE000F003
:10034000ABFE401B022809D9A06A40F01000A06251
:10035000E06A40F00100E062012070BD2068806822
:10036000C043C007EBD0002070BD10B50146406A05
:10037000826A12F0500F05D0006A026BBDE810408F
:1003800008461047816A41F40071816201688968FA
:10039000C1F3424107290CD1C16851B9816A21F4E6
:1003A00080718162816AC90403D4816A41F00101CC
:1003B000816200F00BFA10BD10B5406A816A41F00D
:1003C00040018162C16A41F00401C16200F015FA86
:1003D00010BD10B5406A00F00FFA10BDF8B5002648
:1003E0000446009600688168C943C90727D0816820
:1003F00041F001018160134813490068B0FBF1F03E
:1004000000E0401E00900028FBD100F045FE0546AC
:1004100010E000F041FE401B02280BD9A06A40F01A
:100420001000A062E06A40F00100E06284F82460FD
:100430000120F8BD20688068C043C007E9D10020D2
:10044000F8BD00000C01002040420F00FEE7002034
:1004500070470020704700002DE9F84F6F480025D5
:100460001027D0F818026E4E4FF00108DFF8B49153
:10047000DFF8B4A1DFF8B4B10090C7E000984419E8
:1004800060780A2804D014287ED0FF287AD1B6E0FC
:10049000A078092876D200EB400006EB0010E17846
:1004A0000176A078616900EB400006EB0010C160A6
:1004B000A078216900EB400006EB00108160A07875
:1004C000E16800EB400006EB00104160A078A168F5
:1004D00000EB400006EB00100160A078616800EBC3
:1004E000400006EB0010C161A078A16900EB40005C
:1004F00006EB00100161A078E16900EB400006EB1B
:1005000000104161A0784FF07E5100EB400006EBF7
:100510000010006920F0004005F04AFB06D2A078E8
:10052000002100EB400006EB00100161A0784FF0C5
:100530007E5100EB400006EB0010406920F00040C7
:1005400005F036FB07D2A0784FF07E5100EB40005B
:1005500006EB00104161A07800EB400006EB0010B4
:100560004169006905F024FB06D2A07800EB400049
:1005700006EB00100169416172B689F80080CBF882
:1005800000A062B63DE0FFE7A078062839D200EB74
:10059000C0022748D4F8031040F82210A178D4F8FC
:1005A000072001EBC10100EB81014A60A178D4F87A
:1005B0000B2001EBC10100EB81018A60A178D4F826
:1005C0000F2001EBC10100EB8101CA60A178D4F8D2
:1005D000132001EBC10100EB81010A61A178D4F87D
:1005E0001B2001EBC10100EB81018A61A178D4F8E5
:1005F000172001EBC10100EB81004261BCE74025FF
:10060000BAE720782844C5B2402D04D27F1E17F0E7
:10061000FF077FF433AF0020BDE8F88FE00500202E
:100620002003002030000020E09304003C00002064
:10063000D0040020014800F0BBBA0000A80500204B
:1006400010B5046863604368102B036803D0996099
:100650000068C26010BD9A600068C16010BD70473C
:10066000FEE77047F8B50023009390F824209E46DB
:10067000012A1ED0012280F824204A681F254FF449
:100680007874072A17D20668776B94FAA4FCBCFA30
:100690008CFC521E02FB0CFC05FA0CF5AF4394FADD
:1006A000A4F4B4FA84F40D68624395402F43776351
:1006B0002DE00220F8BD06680D2A14D2376B94FA9B
:1006C000A4FCBCFA8CFCD21F02FB0CFC05FA0CF556
:1006D000AF4394FAA4F4B4FA84F40D6862439540ED
:1006E0002F43376313E0F76A94FAA4FCBCFA8CFC3E
:1006F0000D3A02FB0CFC05FA0CF5AF4394FAA4F496
:10070000B4FA84F40D68624395402F43F7620A6897
:100710003825072604680A2A14D3E76895FAA5FC49
:10072000BCFA8CFC0A3A02FB0CFC06FA0CF6B74346
:1007300095FAA5F5B5FA85F58E686A439640374374
:10074000E76012E0276995FAA5FCBCFA8CFC02FB75
:100750000CFC06FA0CF6B74395FAA5F5B5FA85F543
:100760008E686A439640374327610A68102A01D091
:10077000112A20D1124C0268A24217D19468240297
:1007800019D4946844F4000494600968102912D1C3
:100790000C490D4A0968B1FBF2F101EB81014900F6
:1007A00000E0491E00910029FBD104E0816A41F07C
:1007B00020018162012380F824E01846F8BD000082
:1007C000002401400C01002040420F000849088924
:1007D000072801D1012048700879401C10F0FF0063
:1007E000087104D14FF40051024800F04BBC70472F
:1007F00030000020001001407047704710B50446DB
:1008000000684168890626D50168890723D5A16A51
:10081000C90603D4A16A41F40071A1628168C1F3E1
:100820004241072910D1E16871B9416821F02001E6
:100830004160A06A20F48070A062A06AC00403D462
:10084000A06A40F00100A0622046FFF7BFFF2168C8
:100850006FF0120008602068416809062ED5016813
:1008600049072BD5A16AC90603D4A16A41F40051F6
:10087000A1628168C1F30231072909D041684905A5
:1008800015D48168C1F34241072910D1E16871B9DB
:10089000416821F080014160A06A20F48050A0628C
:1008A000A06AC00503D4A06A40F00100A0622046FF
:1008B000FFF7D7FE21686FF00C00086020684168E0
:1008C00049060DD50068C0070AD0A06A40F4803000
:1008D000A062204600F0A0F821686FF001000860D7
:1008E00010BD00002DE9F04104004FF0000514D0C8
:1008F000A06A002628B9E66284F82460204600F049
:100900008DF82046FFF70CFDA16A01F010010143AC
:1009100004D0A06A40F01000A06277E0A16A21F440
:10092000885141F00201A1626268E169E3680A430B
:10093000022191FAA1F1B1FA81F103FA01F10A431E
:10094000A1684FF48077B94208D0012906D0002170
:10095000D4F814C0BCF1010F02D00AE03946F7E721
:10096000F3B1A36A43F02003A362E36A43F00103F7
:10097000E3622368D3F804C02CF4694C4CEA010C00
:10098000C3F804C021688B68DFF884C003EA0C0355
:1009900013438B60A168B94210D001290ED016E034
:1009A0004FF4604CA3699CFAACFCBCFA8CFC5B1E57
:1009B00003FA0CF30B4343F40061DAE74FF47001E0
:1009C000256991FAA1F1B1FA81F16D1E8D4021687E
:1009D000CB6A23F470032B43CB62216889680D4BEB
:1009E0001940914208D1E662A16A21F0020141F06A
:1009F0000101A162BDE8F081A06A20F0020040F090
:100A00001000A062E06A40F00100E0620120F1E71E
:100A1000FDF7E1FFFE0E1FFF7047000030B50546F1
:100A200000681B4985B088422FD11A48816941F47A
:100A3000007181618069694600F400700490FF20B4
:100A4000009003200190144800F038FA144C134829
:100A50008021206000206060C4E90201490021611A
:100A6000890061612021C4E90610204600F0C6F922
:100A700008B1FFF7F5FD2C620022114612206562D5
:100A800000F088FB122000F079FB05B030BD0000BB
:100A9000002401400010024000080140080002400C
:100AA000A80500202DE9F047894604463B49006827
:100AB0003B4F0E1D9046884201D0B84207D13068A6
:100AC00010F4702F03D001252846BDE8F08794F874
:100AD000240001280CD0012084F824002046FFF7D0
:100AE0007DFC05004FF0000104D084F82410EBE7F2
:100AF0000220EAE7A06A40F60162904340F4807069
:100B0000A0622068B84218D1326812F4702F14D055
:100B1000A06A40F48010A0623068400505D5A06A44
:100B200020F4005040F48050A062A06AC0040AD5AE
:100B3000E06A20F00600E06206E0A26A22F4801279
:100B4000A2624068E9E7E16284F82410216A15484E
:100B50008862216A1448C862216A144808632168BF
:100B60006FF0020008602068816841F48071816044
:100B7000216843464A464C31206A00F067F92068F4
:100B80008168C1F342410729816803D041F4801193
:100B9000816099E741F4A001FAE7000000240140D8
:100BA000002801406B030008D3030008B9030008C4
:100BB0002DE9F05FDFF840820446D8F800C0DFF886
:100BC00038B28D4D8C4E8C4F00684FF40061DFF8C9
:100BD0002892DFF824A20BF1080B0B011C353036EC
:100BE00044374FF4002E09F158090AF16C0A5845B0
:100BF00001D1082216E0A84201D1802212E0B042C1
:100C000001D10A460EE0B84201D11A460AE0484531
:100C100001D1724606E0504502D14FF4000201E0D6
:100C20004FF000621CEA020F31D00268D243120773
:100C30002DD4026822F0080202602068584501D1D4
:100C4000082114E0A84201D1802110E0B0420ED06A
:100C5000B84201D119460AE0484501D1714606E083
:100C6000504502D14FF4000101E04FF00061C8F897
:100C70000410606B40F001006063042084F82100E0
:100C8000002084F82000216B09B1204688475A488B
:100C9000D0F800804FF4806120680B014FF4802E63
:100CA0004FF0806C584501D1042215E0A84201D1D3
:100CB000402211E0B04201D10A460DE0B84201D114
:100CC0001A4609E0484501D1724605E0504502D177
:100CD0004FF4800200E0624618EA020F2CD002684E
:100CE000D243520728D40268920603D4026822F045
:100CF000040202602068584501D1042113E0A84293
:100D000001D140210FE0B0420DD0B84201D11946C7
:100D100009E0484501D1714605E0504502D14FF444
:100D2000800100E0614634484160112084F82100D0
:100D3000E16A09B1204688472F4BD3F80080DC4692
:100D4000206859154FF4005B4FF4003E604501D117
:100D5000022216E0A84201D1202212E0B04201D1C5
:100D60000A460EE0B84201D15A460AE0484501D190
:100D7000724606E0504502D14FF4001201E04FF0F8
:100D8000007218EA020F34D00268D243920730D4BE
:100D90000268920603D4026822F002020260206810
:100DA000604501D1022114E0A84201D1202110E0C8
:100DB000B0420ED0B84201D159460AE0484501D1AF
:100DC000714606E0504502D14FF4001101E04FF0AA
:100DD00000715960606B6063012084F8210000207D
:100DE00084F82000A16A002903D02046BDE8F05F06
:100DF0000847BDE8F09F00000000024070B520B138
:100E000090F82110002411B103E0012070BD80F89A
:100E10002040022180F8211001680A6843F6F0732F
:100E20009A43D0E901352B43D0E9035635432B4390
:100E300045692B4385692B43C5692B4313430B60DD
:100E40004463012180F82110002070BD70B5044674
:100E500090F82000012823D0012084F820000220EF
:100E600084F821002068056825F00105056020460A
:100E7000FFF7E6FB2068016841F00201016020688D
:100E8000016841F0040101602068016841F0080137
:100E900001602068016841F001010160002070BD1F
:100EA000022070BD31B500F0F7F8044600F0F4F808
:100EB0000099001B8842F9D338BD00002DE9F84F96
:100EC000DFF8A091002309F1040A0AF1040B1C4683
:100ED0004FF00F080BF1040E01270A68A7403A40B3
:100EE000BA4272D1DFF880C14D68A5EB0C066545AA
:100EF0002BD00DDC032D34D005DC35B3012D19D0FA
:100F0000022D2FD11BE0112D16D0122D2AD119E060
:100F1000B6F5881F19D006DCB6F5803F15D0B6F5BA
:100F2000801F1FD111E0B6F5001F0ED0B6F5041FCB
:100F300018D10AE0CB6815E0CB681B1D12E0CB6826
:100F400008330FE0CB680C330CE08B682BB1012B1E
:100F50004FF0080303D0476104E0042302E0076177
:100F600000E00023FF2A01D8064601E000F1040654
:100F70004FEA840501D9A5F12005376808FA05FC78
:100F800027EA0C0703FA05F547EA050737604D68BD
:100F9000ED0060D5354DAE6946F00106AE61AD6934
:100FA00024F0030605F001050095314D7719BE6860
:100FB000A5072D0F08FA05FC26EA0C06DFF8B4C0D9
:100FC000604503D14FF0000C17E044E0DFF8A8C003
:100FD000604502D14FF0010C0FE0DFF8A0C0604582
:100FE00002D14FF0020C08E0DFF894C0604502D156
:100FF0004FF0030C01E04FF0040C0CFA05FC4CEA36
:10100000060CC7F808C04D68D9F80060ED034D46DE
:1010100001D5164300E096432E604D68DAF8006073
:10102000AD03554601D5164300E096432E604D684A
:10103000DBF80060ED025D4601D5164300E0964303
:101040002E604D68DEF80060AD02754601D516438E
:1010500000E096432E60641C102CFFF43DAFBDE809
:10106000F88F000000040140000011100010024041
:101070000000014000080140000C01400010014048
:1010800000140140C2684A40C26070470AB1016161
:1010900070470904FBE70000014800687047000042
:1010A0000000002002480168491C016070470000F0
:1010B00000000020074810B5016841F010010160F0
:1010C000032000F087F8002000F006F800F016F882
:1010D000002010BD0020024010B5044600F0C6FC00
:1010E0004FF47A71B0FBF1F001F036F9002221469D
:1010F000501E00F04FF8002010BD00001D4808B53C
:10110000816941F001018161806900F00100009076
:10111000032000F05FF8002211466FF00B0000F092
:1011200039F8002211466FF00A0000F033F800226F
:1011300011466FF0090000F02DF800221146501FF3
:1011400000F028F800221146101F00F023F80022BA
:101150001146901E00F01EF800221146501E00F0AD
:1011600019F80548416821F0E06141F000714160E3
:1011700008BD0000001002400000014000F01F0206
:10118000012191404009800000F1E020C0F80011E9
:1011900070470000F0B40E4B1B68C3F30223C3F189
:1011A0000704042C00D904241D1D072D01D200239F
:1011B00000E0DB1E012606FA04F56D1E0D409D4081
:1011C0009E40761E164045EA0601F0BC01F0CEBCFA
:1011D0000CED00E0064A00F0070110684FF6FF032F
:1011E000184040EA0120034908431060704700009E
:1011F0000CED00E00000FA0510B50C0605D501F075
:101200007F0100EB4110283003E000EB411000F5B6
:10121000027099B232B101228272C180190C01812F
:10122000002010BD002282728180F9E7704700EB38
:101230004112D0F81C04D26B02F0BBBB00EB411290
:10124000D0F81C04D2F81C2202F008BC10B50446E9
:101250000A460B0601F07F0004EB401101D528314E
:1012600001E001F502710870D009487094F8E803B4
:10127000012809D0012084F8E803206802F09BFFD0
:10128000002084F8E80310BD022010BD70B50A46A6
:101290000446090602F07F0003D504EB4011283113
:1012A00003E004EB421101F5027100258D70087016
:1012B000D009487094F8E803012809D0012084F887
:1012C000E803206803F015F884F8E853002070BDA7
:1012D000022070BD70B504460D460E0601F07F0079
:1012E00004EB401101D5283101E001F502710870CD
:1012F000E80948700A61CB7094F8E803012809D026
:10130000012084F8E803206802F02AFE002084F817
:10131000E80370BD022070BD70B504460E4601F0B2
:101320007F0004EB401101F5077100252CC101F885
:101330001F5C01F8200D94F8E80301280AD0012071
:1013400084F8E8037006206803F02DF884F8E85369
:10135000002070BD022070BD70B50D460446090620
:1013600005F07F0003D504EB4011283103E004EBC6
:10137000451101F5027101228A700870E809487070
:1013800094F8E803012807D084F8E823206802F0E5
:10139000E5FF680602D006E0022070BD04F57B710F
:1013A000206802F0A4FF002084F8E80370BD70B547
:1013B00004460E4601F07F0004EB40113C3100254D
:1013C0002CC1012201F81F2C01F8200D94F8E8032C
:1013D000012809D084F8E8237006206802F0E3FFB2
:1013E00084F8E853002070BD022070BD10B504469B
:1013F000006803F0B9F8000402D5204601F0C6FBEE
:10140000206803F0B1F840050CD5206830F8441F7F
:1014100021F480610180204600F0F2F8002120468E
:1014200000F003F9206803F09FF8400405D5206818
:1014300030F8441F21F480410180206803F094F8C3
:10144000800405D5206830F8441F21F40051018044
:10145000206803F089F8C00413D5206830F8401FD5
:1014600021F00401018021684FF43D40A1F84000C3
:10147000204600F0D2F8206830F8441F21F4805153
:101480000180206803F070F800051AD5206830F854
:10149000441F21F400610180206830F8401F41F0B2
:1014A00008010180206830F8401F41F004010180EC
:1014B000206803F059F8C043C00402D5204600F06C
:1014C000E9F8206803F050F8800508D5206830F866
:1014D000441F21F400710180204600F0A2F820682A
:1014E00003F042F8C00505D5206830F8441F21F408
:1014F0008071018010BD2DE9F04186B004004FF0ED
:10150000000504D094F8E903002620B108E001208A
:1015100006B0BDE8F08184F8E863204600F04AF8A0
:10152000032084F8E903206802F0DAFE04F11001D8
:10153000142288466846FEF747FE94E80F0002F042
:1015400038FE0021206803F020F8012704EB451045
:1015500080F8297000F8285F8581C67006614661B1
:101560006D1C86610F2DF1D3002104EB411080F832
:10157000096280F80812818680F80B62C0F8186250
:10158000C0F81C62491CC0F820620F29EDD3142258
:1015900041466846FEF718FE94E80F0002F097FEF9
:1015A00084F8246084F8E973206802F08EFE00203D
:1015B000AEE7000008B500680F4988421AD10F480D
:1015C000C16941F40001C161C069002200F400005A
:1015D000009011461320FFF7DDFD1320FFF7CEFD2D
:1015E000002211461420FFF7D5FDBDE80840142065
:1015F000FFF7C4BD08BD0000005C004000100240C1
:1016000010B504460121D0F81C0402F0E7FAD4F822
:101610001C04BDE8104002F0B0BAD0F81C0402F07F
:10162000CBBAD0F81C0402F0CDBA10B5044690F83D
:10163000E80301280BD0012084F8E80384F8241083
:10164000206802F0A4FF002084F8E80310BD022007
:1016500010BDD0F81C2400F57B71104602F0C8BA0A
:1016600010B5044690F8E803012810D0012084F852
:10167000E80301462046FFF7D9FD206802F023FE6B
:10168000206802F063FF002084F8E80310BD022008
:1016900010BD000010B50446D0F81C0402F0E3FAB7
:1016A000A069002804D00348016841F006010160E8
:1016B00010BD000010ED00E00120010291FAA1F13F
:1016C000024AB1FA81F142F82100704700000E424F
:1016D00010B5014632A086B01DC88DE81D0034A0AB
:1016E000344C006804900020012930D0022947D0F2
:1016F00010292AD161682268D20126D54FF47012D0
:1017000092FAA2F201F47010B2FA82F2D040C90348
:101710001DF8000010D561684FF4003292FAA2F271
:1017200001F40031B2FA82F2D14004AA515C224A9B
:10173000B2FBF1F1484301E02049484361684902A6
:1017400003D440000321B0FBF1F006B010BD216AC4
:10175000C1F30122012A03D1890701D5D003F4E79F
:10176000022A05D1616A890702D549F64040ECE7B3
:10177000032AEAD121688903E7D54FF22440E4E740
:1017800000F07AF961684FF4804292FAA2F201F413
:101790004041B2FA82F2D140491C4900D3E700002F
:1017A00002030405060708090A0B0C0D0E0F1010A2
:1017B000010200000010024000127A0000093D0002
:1017C0002DE9F84304460078454EC00773D0F06910
:1017D00040F08050F061F069424F00F0805000907E
:1017E000386840F480703860FFF756FC054604E026
:1017F000FFF752FC401B642832D83868C005F7D583
:10180000306A10F4407050D0A18801F440718142D8
:101810004BD0306A01273B0493FAA3F1B1FA81F16E
:101820008A00314920F440700A44C2F8007493FAE7
:10183000A3F3B3FA83F301EB83010022C1F8002480
:101840003062C00731D0FFF727FC054641F28839E6
:101850004FF0020807E0FFF71FFC411B494502D982
:101860000320BDE8F88398FAA8F0B0FA80F040F0C1
:1018700040004146B7EB501F01D130680BE091FAB0
:10188000A1F0B0FA80F040F04000B1EB501F01D160
:10189000306A00E0706A98FAA8F1B1FA81F101F0BB
:1018A0001F0207FA02F10842D5D0306A616820F4BD
:1018B0004070084330622078800705D57068A168C1
:1018C00020F44040084370602078C00605D5706859
:1018D000E16820F48000084370600020C1E7000048
:1018E0000010024000700040000042422DE9F04725
:1018F000DFF8688104460E46D8F8000000F00700C3
:10190000B0420CD2D8F8001021F007013143C8F8DA
:101910000010D8F8000000F00700B04273D1207822
:101920004F4F800705D57868A16820F0F000084384
:1019300078602078C00755D06068012201280CD05B
:10194000022828D0022393FAA3F1B1FA81F141F0E1
:101950002001490904D0396803E04FF40033F2E76D
:10196000796A93FAA3F3B3FA83F303F01F039A405F
:10197000114248D0796821F0030101437960FFF7F3
:101980008BFB0546606841F2883101280CD00228A3
:10199000894615D022E04FF00073D4E7FFF77CFBB7
:1019A000411B494501D916E089467868C0F381009A
:1019B0000128F3D116E0FFF76FFB411B49450AD818
:1019C0007868C0F381000228F5D10BE0FFF764FBD3
:1019D000411B494502D90320BDE8F087786810F023
:1019E0000C0FF3D1D8F80010404601F00701B142C6
:1019F0000BD9016821F0070131430160006800F054
:101A00000700B04201D00120E6E72078400705D565
:101A10007868E16820F4E060084378602078000787
:101A200006D57868216920F4605040EAC1007860EA
:101A300000F03AF87968F02292FAA2F201F0F0018F
:101A4000B2FA82F2D140074A515CC84006490860A8
:101A50000020FFF741FB0020BEE70000002002400D
:101A6000001002403A5E00080C01002001480068A6
:101A7000704700000C0100200848094900684968C7
:101A80004FF4605292FAA2F201F46051B2FA82F27B
:101A9000D140044A515CC840704700000C0100204E
:101AA000001002404A5E000810B519A085B00FC8AA
:101AB0008DE80F001AA01B4B0068049059681A4863
:101AC00001F00C02042A1DD0082A1BD14FF4701417
:101AD00094FAA4F401F47012B4FA84F4E240C90355
:101AE0001DF8022010D559684FF4003393FAA3F380
:101AF00001F40031B3FA83F3D94004AB595CB0FB75
:101B0000F1F0504305B010BD08485043FAE700001B
:101B100002030405060708090A0B0C0D0E0F10102E
:101B2000010200000010024000127A0000093D008E
:101B30002DE9F84F04460078FE4EC0074FF001052E
:101B40007FD070684FF40038C0F38100012807D0BF
:101B50007068C0F3810002281BD17068C00318D5DB
:101B600098FAA8F0B0FA80F040F02000400901D0C7
:101B7000306800E0706A98FAA8F1B1FA81F101F0DA
:101B80001F0105FA01F108425BD06068002879D096
:101B900057E06068B0F5803F0BD010B1B0F5A02FD2
:101BA00011D0306820F480303060306820F480201C
:101BB00002E0306840F480303060606818B3FFF7AE
:101BC0006BFA074609E0306840F480203060F0E7A7
:101BD000FFF762FAC01B642870D898FAA8F0B0FA30
:101BE00080F040F02000400901D0306800E0706AC9
:101BF00098FAA8F1B1FA81F101F01F0105FA01F19B
:101C00000842E5D01DE0FFF747FA074604E0FFF77A
:101C100043FAC01B6428DFD898FAA8F0B0FA80F025
:101C200040F02000400901D0306800E0706A98FA66
:101C3000A8F1B1FA81F101F01F0105FA01F10842A2
:101C4000E5D12078DFF8F08280074FF0000A4FF0EE
:101C500002075AD570684FF0F80B10F00C0F07D040
:101C60007068C0F3810002281CD17068C00319D4C9
:101C700097FAA7F0B0FA80F040F02000400902D0B7
:101C8000306801E08AE0706A97FAA7F1B1FA81F151
:101C900001F01F0105FA01F108422BD0206901284B
:101CA0007CD127E0206988B395FAA5F0B0FA80F0DE
:101CB00048F82050FFF7F0F9814606E04DE1FFF7C4
:101CC000EBF9A0EB0900022886D897FAA7F0B0FA42
:101CD00080F040F02000400901D0306800E0706AD8
:101CE00097FAA7F1B1FA81F101F01F0105FA01F1AC
:101CF0000842E4D030689BFAABF220F0F80160694A
:101D0000B2FA82F290400143316025E0FFE795FA94
:101D1000A5F1B1FA81F148F821A0FFF7BDF981469C
:101D200005E0FFF7B9F9A0EB09000228CCD897FA33
:101D3000A7F0B0FA80F040F02000400901D03068F0
:101D400000E0706A97FAA7F1B1FA81F101F01F0182
:101D500005FA01F10842E4D1207800076DD5A069A9
:101D6000B8B395FAA5F0B0FA80F008EB8000C0F89F
:101D70008054FFF791F9814605E0FFF78DF9A0EB5C
:101D800009000228A0D897FAA7F0B0FA80F040F036
:101D90006000B5EB501F02D130680CE063E197FAA8
:101DA000A7F0B0FA80F040F06000B7EB501F01D10F
:101DB000306A00E0706A97FAA7F1B1FA81F101F098
:101DC0001F0105FA01F21042D7D00120FFF76AF88F
:101DD00033E0FFE795FAA5F1B1FA81F108EB810153
:101DE000C1F880A4FFF758F9814605E0FFF754F9E0
:101DF000A0EB0900022899D897FAA7F0B0FA80F072
:101E000040F06000B5EB501F01D130680BE097FA4D
:101E1000A7F0B0FA80F040F06000B7EB501F01D19E
:101E2000306A00E0706A97FAA7F1B1FA81F101F027
:101E30001F0105FA01F21042D8D12078400763D57E
:101E4000F06940F08050F061F069DFF8F0B000F028
:101E500080500090DBF8001041F48071CBF8001046
:101E6000FFF71AF9814605E0FFF716F9A0EB090024
:101E7000642872D8DBF80000C005F5D5E0680128B9
:101E80000AD008B1052813D0306A20F00100306272
:101E9000306A20F0040002E0306A40F00100306255
:101EA000E06841F2883B80B3FFF7F6F881460AE02C
:101EB000306A40F004003062EEE7FFF7EDF8A0EB87
:101EC0000901594549D897FAA7F0B0FA80F040F0D7
:101ED0004000B5EB501F01D130680BE097FAA7F036
:101EE000B0FA80F040F04000B7EB501F01D1306AEB
:101EF00000E0706A97FAA7F1B1FA81F101F01F02D0
:101F000005FA02F10842D8D033E0FFE7FFF7C4F842
:101F1000814605E0FFF7C0F8A0EB090159451CD840
:101F200097FAA7F0B0FA80F040F04000B5EB501FF0
:101F300008D105E00010024000004242007000405D
:101F400030680CE097FAA7F0B0FA80F040F040005B
:101F5000B7EB501F02D1306A01E08AE0706A97FA4D
:101F6000A7F1B1FA81F101F01F0205FA02F108426E
:101F7000D0D1E06998B37168C1F38101022972D0B0
:101F800002284FF080714FF0007B50460AD091FA42
:101F9000A1F1B1FA81F148F82100FFF77DF804467C
:101FA0005F4669E08A4691FAA1F1B1FA81F1C14632
:101FB00048F82100FFF770F8A84607465D4604E0A0
:101FC000FFF76AF8C01B022853D895FAA5F0B0FABB
:101FD00080F040F02000400902D0306801E060E06D
:101FE000706A95FAA5F1B1FA81F101F01F0208FAC1
:101FF00002F10842E4D1206AB0F5803F05D1706853
:10200000A16820F4003008437060D4E90801084357
:10201000716821F47411084370609AFAAAF0B0FA5A
:1020200080F0474649F82080FFF736F8044604E080
:10203000FFF732F8001B02281BD895FAA5F0B0FA7A
:1020400080F040F02000400901D0306800E0706A64
:1020500095FAA5F1B1FA81F101F01F0107FA01F13A
:102060000842E5D01DE01EE0FFF716F8001B02282D
:1020700002D90320BDE8F88F97FAA7F0B0FA80F0F4
:1020800040F02000400901D0306800E0706A97FA03
:10209000A7F1B1FA81F101F01F0105FA01F108423F
:1020A000E2D10020E6E70120E4E7000070B504007B
:1020B00003D0607C002610B105E0012070BD2674BD
:1020C000204600F043F802206074204600F01AF920
:1020D000042578BB204600F007FF58BB2068416804
:1020E00021F007014160A06820B11748016821F084
:1020F000010101601448001F0168A26821F46071A9
:10210000114301606068411C04D10120FFF7E0FA2F
:1021100080B1401E21688A6822F00F0242EA104214
:102120008A602168CA6860F30F02CA60204600F026
:10213000F5FE08B16574C0E7E67301206073A07313
:102140006074002070BD0000306C004008B500686D
:102150000C49884215D1FFF7AFFA0B48C16941F02D
:102160000061C161C069094A00F00060009001206F
:10217000C10391FAA1F1B1FA81F102EB8101C1F839
:10218000000408BD00280040001002400000424248
:102190002DE9F0410D4604003BD0C5B3207C012859
:1021A0003AD04FF0010884F8108002206074E8787B
:1021B00072B300F090FEE073687800F08CFE6073FC
:1021C000A87800F088FEA073C2B2617BE07B00F0CB
:1021D000D6FE20732870204600F0C1FE4FF46161E6
:1021E000B0FBF1F1002518292DD91822B1FBF2F12D
:1021F000A1EB011101EB4101C1EB011100EBC11693
:102200003146204600F0FAFE0427C8B90BE000E092
:1022100004E00120BDE8F0810220FBE7E07368786C
:102220006073A878CFE7204600F092FE411C0AD0E8
:10223000B04208D206490144204600F0CBFE10B15E
:1022400067742574E5E784F8118025740020E1E7C0
:10225000805101002DE9F0410D46040024D01DB34A
:10226000207C012823D04FF0010884F81080022040
:102270006074F2B1287800F02EFE4FF4616100FB2B
:1022800001F6687800F027FEC0EB001006EB800630
:10229000A87800F020FE35182946204600F0AEFE52
:1022A0000026042718BB10E00120BDE8F0810220C1
:1022B000FBE729784FF4616041436878C0EB001078
:1022C00001EB8000A9784518E6E72068416821F015
:1022D00005014160204600F03BFE411C0AD0A842A7
:1022E00008D207490144204600F074FE10B167741B
:1022F0002674D9E784F8118026740020D5E7000001
:102300008051010070B504000AD02068416821F0B6
:1023100008014160FEF7C0FE05464FF47A7608E0FA
:10232000012070BDFEF7B8FE401BB04201D903206A
:1023300070BD206840680007F4D5002070BD4FF0E4
:10234000E0210428086903D020F0040008617047E8
:1023500040F00400FAE7704710B5401EB0F1807FEE
:1023600001D3012010BD4FF0E02460610F21601700
:1023700000F0FCFB0020A06107202061002010BDC0
:1023800010B5FFF7E8FF10BD7047704730B590F803
:102390003820012A20D0012380F83830022280F82A
:1023A00039200268546824F070045460026854684C
:1023B0000D682C4354600268946824F08004946093
:1023C0000268946849680C43946080F839300021B1
:1023D00080F83810084630BD022030BD10B504002A
:1023E00003D094F8390010B107E0012010BD00209F
:1023F00084F83800204600F00DF8022084F83900F7
:10240000211D206800F052FF012084F839000020CF
:1024100010BD000008B500681049B0F1804F0BD026
:102420000F4A904207D1C86940F00400C861C869EA
:1024300000F00400009008BDC86940F00100C861C8
:10244000C869002200F00100009011461C20FEF730
:10245000A1FEBDE808401C20FEF790BE001002401F
:10246000000800400168CA6842F00102CA600068C2
:10247000016841F0010101600020704770B5044619
:1024800090F83800012817D0012584F83850022030
:1024900084F839002068826822F0770222F47F42B3
:1024A00082600868502836D00DDC202858D005DC22
:1024B00080B3102840D150E0022070BD302852D0A7
:1024C000402839D13EE060282DD070280BD0B0F5DF
:1024D000805F03D0B0F5005F2ED110E020688168E6
:1024E00021F0070109E0CB68D1E90121206800F063
:1024F0000FFF2068816841F0770181601CE0CB68A4
:10250000D1E90121206800F003FF2068816841F4CF
:102510008041F2E71EE0CA684968206800F0B2FF17
:102520005021206806E0CA684968206800F0BBFFB7
:102530006021206800F0F6FE84F83950002084F80D
:10254000380070BDCA684968206800F09BFF4021D0
:102550002068EFE700212068ECE710212068E9E718
:1025600020212068E6E730212068E3E7704770B556
:102570000446006801694FF00005C943890715D476
:10258000C168C943890711D4E91E01610120207681
:10259000206880698007204602D0FFF7E7FF04E04B
:1025A00000F0ACF8204600F02EF92576206801698D
:1025B000C943490717D4C168C943490713D46FF009
:1025C00004010161022020762068806910F4407FB8
:1025D000204602D0FFF7CAFF04E000F08FF8204643
:1025E00000F011F9257620680169C943090716D45E
:1025F000C168C943090712D46FF0080101610420C2
:1026000020762068C0698007204602D0FFF7AEFF21
:1026100004E000F073F8204600F0F5F82576206815
:102620000169C943C90617D4C168C943C90613D48F
:102630006FF010010161082020762068C06910F455
:10264000407F204602D0FFF791FF04E000F056F8EB
:10265000204600F0D8F8257620680169C943C907EB
:1026600008D1C168C943C90704D1891E0161204648
:1026700000F0CAF820680169C943090609D4C16895
:10268000C943090605D46FF0800101612046FFF7B8
:102690007BFE20680169C943490609D4C168C94362
:1026A000490605D46FF040010161204600F002F9AF
:1026B00020680169C94389060BD4C168C9438906EA
:1026C00007D46FF0200101612046BDE87040FFF79C
:1026D0005CBE70BD1FB500680649884209D14FF441
:1026E0007070009002200190039069460248FEF746
:1026F000E5FB1FBD00080040000C0140704770B5AD
:10270000044690F838000D4601280DD0012684F8C3
:102710003860022084F8390042B1042A18D0082A0F
:102720002AD00C2A4DD139E0022070BD206800F07B
:1027300001FE2068816941F008018161206881699A
:1027400021F004018161206881692A69114311E047
:10275000206800F01BFE2068816941F400618161FE
:102760002068816921F480618161206881692A691A
:1027700041EA0221816124E0206800F035FE2068F2
:10278000C16941F00801C1612068C16921F00401FB
:10279000C1612068C1692A69114311E0206800F015
:1027A0004FFE2068C16941F40061C1612068C169C0
:1027B00021F48061C1612068C1692A6941EA02216E
:1027C000C16184F83960002084F8380070BD10B50C
:1027D000040003D094F8390010B107E0012010BDC7
:1027E000002084F83800204600F00CF8022084F81D
:1027F0003900211D206800F059FD012084F83900BE
:10280000002010BD7047704770B5274DE87800284C
:1028100024D1A878254E78B1E86800281CDDE86846
:10282000401EE86068894FF40051401E68812048CE
:10283000FEF728FC002412E0002406EB041000221E
:1028400081880068FEF722FC641C092CF5DBE8682F
:10285000002803DD012000E00020A87070BD06EB19
:102860000410817919B1012914D1698991B9D0E98C
:10287000021211448160B1F5000F06D3A1F50001E9
:10288000816081880068012202E08188006800225E
:10289000FEF7FCFB641C092CE1DB68890028DDD114
:1028A00040F21D10688170BD3000002090020020B1
:1028B000001001407047FEE7FEB530482E49002465
:1028C00001608915C0E902144461082505614FF4CF
:1028D00060214460C161FEF705F800B1FEE7012602
:1028E000CDE900460324694624480294FDF7BAFE68
:1028F00000B1FEE700960226694620480196FDF7E2
:10290000B1FE00B1FEE7CDE9006469461B48FDF762
:10291000A9FE00B1FEE7009404246946174801941B
:10292000FDF7A0FE00B1FEE70094052469461348B8
:102930000194FDF797FE00B1FEE70620CDE90040C7
:1029400069460E48FDF78EFE00B1FEE710200090AC
:102950000720019069460948FDF784FE00B1FEE7B3
:102960001120CDE9000569460448FDF77BFE0028EB
:1029700000D0FEE7FEBD0000002401401001002051
:102980002DE9F041274886B0816941F0100181614D
:10299000816901F010010491816941F02001816198
:1029A000816901F020010491816941F00401816194
:1029B000816901F004010491816941F0080181619C
:1029C0008069194E00F008004FF400540490002272
:1029D00021463046FEF75AFBDFF850804FF6074598
:1029E000002229464046FEF751FB0127CDE900476A
:1029F0000224694630460394FEF760FACDE9005799
:102A0000694640460394FEF759FA202000900020C2
:102A10000190029069464046FEF750FA06B0BDE8C4
:102A2000F08100000010024000100140000C014045
:102A30007CB516481449002501604FF0FF31C0E90C
:102A40000115FFF733FB00B1FEE701248DF80440C8
:102A50008DF805508DF80650224601A90B48FFF766
:102A6000F9FB00B1FEE78DF800408DF801408DF8CC
:102A700002408DF80350012269460448FFF788FBA5
:102A8000002800D0FEE77CBD002800404001002067
:102A900010B526488EB024490024C0E9001441F640
:102AA0001F41C0E902410461FFF798FC00B1FEE755
:102AB0004FF48050079007A91C48FFF7DFFC00B1D6
:102AC000FEE71A48FFF783FE00B1FEE70B940BA95F
:102AD00016480C94FFF75AFC00B1FEE76020CDE9E0
:102AE000000402940022694610480494FFF707FE90
:102AF00000B1FEE7042269460C48FFF700FE00B172
:102B0000FEE7082269460948FFF7F9FD00B1FEE734
:102B10000C2269460548FFF7F2FD00B1FEE70348C5
:102B2000FFF7D8FD0EB010BD000800409001002056
:102B300010B500220849094800F018FF0849074865
:102B400001F0B5F80749054800F034FDBDE8104034
:102B5000024801F0F9B8000040000020E005002024
:102B60007400002020000020FEE770470907090ECE
:102B7000002806DA00F00F0000F1E02080F8141DB4
:102B8000704700F1E02080F8001470472DE9FC5FE9
:102B900004460020ADF80000ADF8040040F68F7B3D
:102BA0004FF006094FF0020A4FF4806884E1BDF847
:102BB000001011F00F0628D030F82610ADF80410E0
:102BC000BDF80410090475D530F8261001EA0B0190
:102BD00020F8261004EB461595F8120205F502754B
:102BE0000028206867D0297830F82120B0F85030CC
:102BF00052047CD50AEBC1015A1808EB4201415A34
:102C00008F05BF0D74D0EA88C7E0BDF80010C90673
:102C10002CD4018848F60F7211400180206804F11D
:102C20002805B0F850202B780AEBC3010A4408EBC2
:102C30004201405AC0F309006064E16B0844E0635C
:102C400000212046FEF7F3FA94F824000028ADD0C6
:102C5000A8690028AAD194F82400216840F08000D7
:102C6000A1F84C00002084F8240025E1018804F537
:102C70000275ADF80410BDF8041009051CD5B0F8B4
:102C800050202B7809EBC3010A4408EB4201405A5B
:102C900004F57B71C0F30903EB61AA88206801F099
:102CA00066FC2068018801EA0B0101802046FEF7DE
:102CB000D0FC01E195E054E0BDF804100904D4D53E
:102CC000018801EA0B0101802068B0F850202B78C0
:102CD000464609EBC301114408EB4101405A830504
:102CE0009B0DEB610BD0AA886969206801E04AE07E
:102CF00057E001F03CFCE96968690844686100211B
:102D00002046FEF79BFA2068B0F85010891D06EBAC
:102D10004101421828693E280CD9C0F34F11C00662
:102D200001D1491E89B24FF6FF7000EA812040F4BC
:102D3000004009E0C0F34F01C00701D0491C89B22F
:102D40004FF6FF7000EA81201060206801884BF682
:102D50008F72114081F4405148F28002114301808A
:102D6000AAE0B0F850202B7809EBC3010A4408EB25
:102D70004201415A8F05BF0D1FD0AA883B466969A1
:102D800001F0F5FB19E009EBC1015A1808EB42010B
:102D9000415A8F05BF0D04D02A893B46696901F06D
:102DA000E6FB2978206830F8212048F68F731A4016
:102DB00048F2C0031A4320F82120E8693844E8614A
:102DC0006869C2196A61AB6913B12869B84204D94C
:102DD00029782046FEF732FA03E029782046FEF7EC
:102DE0009BFABDF80400000666D5206804EB461582
:102DF00030F8261048F60F72114020F8261095F88A
:102E0000320028350028206812D0297830F8212097
:102E1000B0F8503052061ED50AEBC1015A1808EB23
:102E20004201405A83059B0DEB6123D0EA881DE0E7
:102E3000B0F850202B780AEBC3010A4408EB42019A
:102E4000405A83059B0DEB6120D0AA8869692068F0
:102E500001F0A3FB1AE009EBC1015A1808EB42018B
:102E6000405A83059B0DEB6104D02A89696920686B
:102E700001F093FB2978206830F8212048F68F7301
:102E80001A404CF280031A4320F821202068B0F841
:102E900050202B780AEBC3010A4408EB4201405A48
:102EA000C0F30900E86169690A186A612978AB69A9
:102EB000204663B1FEF77BFA2068B0F84410ADF805
:102EC000001009043FF573AE0020BDE8FC9FFEF73B
:102ED000AEF9F1E77047010901EB810100F00F0045
:102EE00000EB4100C0B2704770B50546FEF7D4F85C
:102EF00004464FF47A7606E0FEF7CEF8001BB042A7
:102F000001D9032070BD286840688006F4D5286880
:102F1000416841F010014160002070BD70B5054668
:102F20000068416821F010014160FEF7B5F80446E1
:102F30004FF47A7606E0FEF7AFF8001BB04201D9F5
:102F4000032070BD286840688006F4D5002070BD5D
:102F50000068016A406A80B240EA01407047006838
:102F600081698AB2C1698BB2816989B28A4203D010
:102F7000C06961F31F40704743EA02407047F0B5F3
:102F80006426C1EBC1030925B700072403EB011335
:102F90000329B3FBF5F100F5FA60114401440AD2AC
:102FA000401EB0FBF6F201EB9001B0FBF7F0891A7E
:102FB0000844001D08E0B0FBF6F201EB9001B0FB05
:102FC000F7F0891A0844801CB0FBF4F104FB1100EF
:102FD000C0B2F0BD70B50D4606460024FFF784FF71
:102FE00048B93168280C08623168A8B24862304696
:102FF000FFF794FF00B10124204670BD70B50D4667
:1030000006460024FFF770FF48B93168280C886134
:103010003168A8B2C8613046FFF780FF00B10124D3
:10302000204670BD704710B5FEF73CF8FFF7A8F9D1
:10303000BDE81040AFF300802DE9FC5F5F4800253C
:10304000C178002976D080464079DFF8749100EB92
:10305000400209EB0214AA46C4F820A094F91860B3
:10306000A9F5AA7B062E0BD206EBC60109F5D8708E
:1030700000EB810090F82010002969D0C06915E0AC
:10308000B01F022814D200273D460BEB051030F884
:10309000160002F079FC394602F020FB6D1C074651
:1030A000082DF2DB6FF0020102F089FE206201E0E0
:1030B000002E4DDAD4E9075146464F46284602F025
:1030C000A9FD00902846E16802F0A6FC0190E16AA3
:1030D000009802F09FFD3B4902F09EFCA16802F0BF
:1030E0009BFC05462168009802F096FCA16A02F05C
:1030F000F5FA294602F0F2FA019902F0EFFA0546D4
:103100000098E0622846616902F052FD707900EB98
:10311000400007EB001001D8456919E00169284615
:1031200002F046FC707900EB400004D807EB001079
:1031300005690DE040E007EB00140099606802F0BB
:103140006BFC214902F068FCA16A02F0C7FAA06298
:1031500098F80540464604EB440109EB011017219D
:103160004562284602F02BFE02F0EEFB72B61449CF
:10317000903901EB0411C86062B6641CE0B2707152
:10318000092801D386F805A0B079401CB071C0436E
:10319000800711D13089401C80B23081082801D3CA
:1031A000A6F808A0318902B00BEB0111BDE8F05F71
:1031B00008220648FDF776BCBDE8FC9F30000020E1
:1031C00020030020E338DE42BD74133C10010020D0
:1031D00030B593B005204FF4803100248DE8130002
:1031E0000120039004904FF4E010CDE9081002256F
:1031F00007956846FEF79CFC00B1FEE70F20CDE97D
:103200000A054FF48060CDE90C4002210AA80E9413
:10321000FEF76CFB00B1FEE713200F904FF48070B7
:103220001090C001CDE911040FA8FEF7C9FA00B152
:10323000FEE7FEF71BFC4FF47A71B0FBF1F0FFF7ED
:103240008BF80420FFF77BF800221146501EFDF793
:10325000A1FF13B030BD00000D48016841F001012D
:10326000016041680B4A1140416001680A4A1140FF
:103270000160016821F480210160416821F4FE01B0
:1032800041604FF41F0181600449C003086070472A
:10329000001002400000FFF8FFFFF6FE08ED00E01E
:1032A0000148FFF764B9000054010020F0B502683E
:1032B000144C154D154E4FF08047A04205D0B84232
:1032C00003D0A84201D0B04203D122F070034A6873
:1032D0001A43A04205D0B84203D0A84201D0B04260
:1032E00003D122F44073CA681A4302608A68C2623A
:1032F0000A688262A04201D109690163012141612A
:10330000F0BD0000002C0140000400400008004017
:1033100010B5846842EA032224F47F440A4322431E
:10332000826010BD826822F070020A4342F00701F9
:103330008160704730B5026A22F001020262036ABE
:103340004268846924F073050C682C4323F002055D
:103350008B682B430C4DA84206D123F00805CB689F
:1033600043EA050323F0040307D14D6922F44072B8
:1033700045EA02058A6942EA0502426084614968B9
:103380004163036230BD0000002C014030B5026A89
:1033900022F010020262026A436884690D6824F414
:1033A000E64444EA05248D6822F0200242EA051230
:1033B0000C4DA84206D1CD6822F0800242EA0512E7
:1033C00022F0400207D14D6923F4406343EA8503AC
:1033D0008D6943EA850343608461496881630262C1
:1033E00030BD0000002C014030B5026A22F480722A
:1033F0000262036A4268C46923F4007324F073050F
:103400000C682C438D6843EA05230C4DA84206D175
:10341000CD6823F4006343EA052323F4806307D1D6
:103420004D6922F4405242EA05128D6942EA0512C2
:103430004260C4614968C163036230BD002C014031
:1034400030B5026A22F480520262036A4268C4699B
:103450000D6824F4E64444EA05248D6823F40053FF
:1034600043EA0533064DA84204D14D6922F4804257
:1034700042EA85124260C46149680164036230BD5A
:10348000002C014010B5046A036A23F001030362B3
:10349000836923F0F00343EA021324F00A020A438B
:1034A0008361026210BD10B5036A23F0100303624A
:1034B0008469036A24F4704444EA023223F0A003CE
:1034C00043EA01118261016210BDD0F818020021A7
:1034D00080F850100846704770B50546D0F818427D
:1034E000D5F81C226178D268207890474023224684
:1034F0000121284600F03AFB002070BD10B50446BB
:10350000812100F04FFA0121204600F04BFAD4F857
:10351000180250B1D4F81C0204F506748068804784
:10352000206800F017FD00202060002010BD10B5BD
:10353000D0F81842E16C012908D1D0F81C02237898
:103540006178C268184690470020E064002010BDF2
:103550002921018000487047B00000200A21018025
:10356000004870470001002070B506460025402342
:103570000322812100F0F0FA40230322012130468A
:1035800000F0EAFA542000F0E7FCC6F8180278B11F
:103590000446002084F85000D6F81C02406880479A
:1035A000402322460121304600F0E0FA284670BD53
:1035B0000125FBE702460220002902D00020C2F8C4
:1035C0001C12704710B5134690F8FC41D0F8182231
:1035D000032C09D192F8504034B9012482F85040AC
:1035E0000A46812100F048FB002010BD70B5002282
:1035F0000D78D0F81832144615F0600526D0202D2D
:103600004CD14A78921E0A2A1CD2DFE802F0100838
:103610001B1B1B1B1B140C05887818643EE0012241
:1036200003F1400131E04888000A586436E0012285
:1036300003F1440129E00122DA648A79194600F095
:1036400053F82BE000F045F8022070BD4D78062DB0
:1036500004D00A2D1CD00B2D20D11DE04B88222533
:10366000B5EB132F07D1CA881C2A00D91C22D0F829
:103670001C120C6808E02125B5EB132F04D1CA8871
:10368000074C212A00D92122214600F047F805E005
:10369000012203F14801F8E788789864002070BDA2
:1036A000DC00002010B5D0F81422526890470020AA
:1036B00010BD134610B50A46002100F057FA00204D
:1036C00010BD134610B50A46002100F0D5FA0020BF
:1036D00010BD10B50446802100F0B7FA2046BDE8C1
:1036E0001040002100F0B1BA10B50323C0F8082142
:1036F000C0F8F431C0F80C2113460A46002100F04E
:1037000035FA002010BD10B505210023C0F8F411D2
:103710001A46194600F02AFA002010BD10B50223FF
:103720008261C0F8F431C26113460A46002100F0FC
:10373000A3FA002010BD10B504210023C0F8F41135
:103740001A46194600F098FA002010BD10B50A4636
:10375000024903A000F0E7F8004810BD7C0C0020EF
:10376000437573746F6D2048494420436F6E6669DA
:1037700067000000122008800048704760000020A9
:1037800010B50A46024903A000F0CDF8004810BD6C
:103790007C0C0020437573746F6D204849442049A8
:1037A0006E74657266616365000000000420088025
:1037B000004870475C00002010B50A46024903A08B
:1037C00000F0B1F8004810BD7C0C00204461426953
:1037D0007400000010B50A46024903A000F0A3F8E7
:1037E000004810BD7C0C00204461426974203344C1
:1037F000207072696E74657220617578696C696198
:10380000727920636F6E74726F6C6C657200000069
:1038100010B50A46024903A000F085F8004810BD23
:103820007C0C00203030303030303030303031429D
:1038300000000000F8B5044648880D46010A082932
:1038400054D2DFE801F05304091753534951D4F817
:103850001012207C0A6819E0207C02260028D4F887
:10386000140205D0C16A68468847014646704AE09E
:10387000816AF8E7C1B2062926D2DFE801F0030A1F
:103880000F14191ED4F81012207C4A68694690471C
:1038900018E0D4F81012207C8A68F7E7D4F81012E8
:1038A000207CCA68F2E7D4F81012207C0A69EDE7A0
:1038B000D4F81012207C4A69E8E7D4F81012207C72
:1038C0008A69E3E701461EE0C1B2D4F814026A46F1
:1038D000836B20469847F5E7207C38B9D4F814026A
:1038E000416B68468847EDE7207C20B12946204699
:1038F000FFF7EFFEF8BDD4F81402016B6846884765
:10390000014607204870BDF800000028F2D0EA8880
:10391000002AEFD0824200D90246ADF800202046AE
:10392000FFF7FCFEF8BD70B5002300281DD004464B
:10393000002502E06D1CEDB2641C2678002EF9D142
:10394000022404EB45041480CC545B1C0322CA54AB
:1039500000245B1C06E0CA545B1CDAB28C54521C77
:10396000D3B2401C0278002AF5D170BD10B580B1E9
:10397000D0F8143213B10023C0F8143209B1C0F8E2
:103980001012012180F8FC11027000F09DF8002057
:1039900010BD022010BD10B5D0F82002FDF776FC56
:1039A000002010BD10B5D0F82002FDF74FFC00201C
:1039B00010BD2DE9F0411746044641B1D4F8140278
:1039C00042698AB394F8FC01032842D043E0D4F85A
:1039D000F411002504F11400022933D1D0E9026367
:1039E0009E4207D9F31A83609AB239462046FFF700
:1039F00068FE12E04068B0FBF3F103FB1101A1B9CE
:103A0000984212D3D4F8F81188420ED200221146FF
:103A10002046FFF756FEC4F8F85100231A4619460F
:103A2000204600F0A3F80DE012E0D4F81402C168BB
:103A300029B194F8FC01032801D12046884720468B
:103A4000FFF761FE94F80002012804D184F80052C7
:103A500001E0204690470020BDE8F08170B5154692
:103A6000044641B1D4F8140282693AB394F8FC01D7
:103A7000032824D025E0D4F8F41104F5827003293A
:103A80001FD1D0E902318B420BD95B1A8360084603
:103A9000834200D303469AB229462046FFF709FE27
:103AA0000FE0D4F81402016929B194F8FC0103284D
:103AB00001D1204688472046FFF73DFE01E0204621
:103AC0009047002070BD000010B5044619481A49FF
:103AD000C0F81C44C4F820020160082141600221A2
:103AE00081600321C16000218161C1610162FDF734
:103AF00002FD08B1FCF7B4FD0022D4F8200218231F
:103B0000114604F50874FDF777FB58230022802145
:103B10002068FDF771FB9823002281212068FDF7C2
:103B20006BFBD823002201212068FDF765FB0020F4
:103B300010BD00005C080020005C00400A06D0F8C0
:103B4000200201F07F0100EB411002D590F82A001D
:103B5000704790F80A02704710B51C461346D0F81B
:103B600020022246FDF7B6FB002010BD10B5D0F8AC
:103B70002002FDF7D1FB002010BD70B500220446E5
:103B800040231146FFF7E8FF40252B460022802105
:103B90002046C4F81051FFF7DFFF0120256284F8AA
:103BA000FC01D4F8180228B1D4F814022179426833
:103BB00020469047002070BD90F8FD1180F8FC1160
:103BC0000020704710B590F8FC11032904D1D0F8FB
:103BD0001412C96901B18847002010BD017400208A
:103BE000704710B5D0F82002FDF71FFD002010BD72
:103BF00070B5044600F50270054600F044F8012057
:103C0000C4F8F401B4F80E02C4F8F80194F80822DC
:103C100012F01F000AD001280DD0022810D002F0A7
:103C20008001204600F011F8002070BD2946204692
:103C300000F08FF8F8E72946204600F071F9F3E725
:103C40002946204600F0FEF8EEE710B5D0F8200235
:103C5000FDF782FB002010BD10B5D0F82002FDF763
:103C6000FFFC002010BD90F8FC1180F8FD1104212C
:103C700080F8FC110020704710B5D0F82002FDF745
:103C800096FB002010BD0A7802704A7842708A784C
:103C9000CB7802EB032242800A794B7902EB0322B4
:103CA00082808A79C97902EB0121C180704702467E
:103CB000002011B1C2F8141270470220704710B5ED
:103CC000D0F8142202241AB11268904700B90024D7
:103CD000204610BD70B50D461A4E897804463170E5
:103CE000012928D894F8FC01022802D0032822D107
:103CF00005E099B10320616084F8FC0109E091B10D
:103D0000606888420AD0C1B22046FFF7CBFC317808
:103D100061602046FFF7D3FF02280CD02046BDE8A3
:103D20007040FFF708BD022084F8FC012046616066
:103D3000FFF7B8FCF2E729462046BDE87040FFF7E0
:103D4000C8BC00007200002010B5FFF785FF0020FE
:103D500010BD2DE9F04100274A7801263B460A2A8A
:103D600043D2DFE802F03C584251420805422A277C
:103D7000FFF760FD63E004468888C8B9C888B8B911
:103D8000887800F07F0594F8FC01032810D084F8AF
:103D9000FE5129462046FFF724FF2046FFF7CBFCC3
:103DA0001DB1022084F8FC0149E084F8FC6146E082
:103DB00020461AE0FFF78EFF41E0CA88012A14D19D
:103DC00090F8FC21022A02D0032A0ED104E001223D
:103DD00000F10801836014E00122011D11E090F858
:103DE000FC21022A04D0032A02D0FFF772FC26E04D
:103DF000C660D0F8041209B10321C160022200F1AB
:103E00000C01FFF78BFC1AE004464888012816D104
:103E1000C4F804620BE0044690F8FC01022801D0CB
:103E20000328C5D14888012809D1C4F80432D4F840
:103E300014028268204690472046FFF77CFC3846F3
:103E4000BDE8F08170B50D46044628780026097952
:103E5000C0F34110012806D06878A0B301281FD014
:103E600003283FD107E0D4F814022946826820468F
:103E70009047002070BD94F8FC01022817D0032859
:103E80002CD1688828B921B1802902D02046FFF7BB
:103E9000DCFED4F81402294682682046904713E0DD
:103EA00094F8FC01022802D0032817D103E0C9B11D
:103EB00080291BD116E06888A0B9480604D02046A6
:103EC000FFF769FDE5E703E02046FFF734FC09E072
:103ED00094F8FC01022807D003280BD0294620467D
:103EE000FFF7F7FB304670BD4806FBD02046FFF7D2
:103EF000ACFEF7E7080601F07F0004EB001501D5E2
:103F0000143501E005F582752046FFF717FE00B174
:103F100001202860022229462046FFF7FFFBE1E747
:103F200070B5054690F8FC010C4603280DD12079A8
:103F300001280AD8D5F81402826828469047E088FC
:103F400030B92846FFF7F7FB02E02846FFF7C1FB30
:103F5000002070BD70470000004870470408002032
:103F60002DE9F047CB780A7848F68F1433B1012B4E
:103F700067D0022B08D0032B0BD17FE030F8223022
:103F8000234043F4007302E030F82230234020F84D
:103F900022300A7830F8224048F68F731C4048F2ED
:103FA00080052C43144320F822408A7A48F6BF79D2
:103FB0004FF0040C4BF68F7A48F2C0044CF28007A5
:103FC000F2B30A7830F8226048F280181E4046EAC0
:103FD000080620F82260CA88B0F8506022F001027A
:103FE00091F8008006EBC80600EB4606C6F80024F0
:103FF0000A89B0F8506022F0010291F800800CEBC1
:10400000C80C664400EB4606C6F800244A78002A2D
:104010000A7830F822604FEA46467DD0002E05DA55
:1040200030F822601E403E4320F822600A7830F8C3
:104030002260760608D530F822601E40264301E053
:1040400028E021E020F822600A7830F822401C4065
:104050003C4320F822400A7830F8223003EA090372
:104060002B4320F82230097830F8212002EA0A0296
:104070002A4320F821200020BDE8F08730F82230C4
:10408000234043F4C06382E730F82230234043F4F6
:1040900080637CE74A78002A8A8822F001021BD0DC
:1040A000B0F850600F7806EBC70600EB4606C6F87E
:1040B00000240A7830F82260760605D530F82260B0
:1040C0001E40264320F82260097830F8212002EAB9
:1040D000090282F02002CBE7B0F850400E780CEBDA
:1040E000C606344400EB4404C4F80024B0F8502061
:1040F0000C78062606EBC404224400EB42060A694B
:104100004FF6FF7C06F580663E2A0CD9C2F34F14A9
:10411000D20603D1641E00E021E0A4B20CEA84229E
:1041200042F4004207E0C2F34F04D20701D0641CFE
:10413000A4B20CEA842232600A7830F82240640487
:1041400005D530F822401C403C4320F82240097835
:1041500030F8212002EA0A0282F4405288E7002E59
:1041600005DA30F822601E403E4320F822600A78CB
:1041700030F82260760605D530F822601E402643CE
:1041800020F822600A7830F822601E40264320F88A
:1041900022600A7830F8223003EA0A0383F440539D
:1041A0002B4320F82230097830F8212002EA090256
:1041B0005EE7002070472DE9F04391F80A804C78C3
:1041C0000A7848F6BF794BF68F7748F2800548F2B7
:1041D000C0064CF2800C48F68F73B8F1000F2AD05D
:1041E000002C30F822404FEA444449D0002C06DA33
:1041F00030F822401C4044EA0C0420F822400A789F
:1042000030F82240640605D530F822401C40344383
:1042100020F822400A7830F822401C4044EA0C047E
:1042200020F822400A7830F8223003EA09032B43B1
:1042300020F822301AE0002C30F822400DD064061D
:1042400005D530F822401C40344320F8224009783C
:1042500030F8212002EA09020CE0640406D530F8A7
:1042600022401C4044EA0C0420F82240097830F82F
:1042700021203A402A4320F821200020BDE8F08385
:10428000002C06DA30F822401C4044EA0C0420F8E6
:1042900022400A7830F82240640605D530F82240E2
:1042A0001C40344320F822400A7830F822401C4059
:1042B000344320F822400A7830F822303B402B4328
:1042C00020F82230C3E7002070470020704701210A
:1042D00020F8401F0021018081800182084670473C
:1042E00030F8401F21F43D4101800020704700203C
:1042F000704730B54C780A78002C48F68F7530F846
:10430000224048F2800312D0640607D530F82240DC
:104310002C4048F2C0052C4320F82240097830F8A0
:10432000212048F6BF74224082F0300211E064047C
:1043300007D530F822402C404CF280052C4320F861
:104340002240097830F821204BF68F74224082F405
:1043500040521A4320F82120002030BD10B50A78C1
:1043600048F2800352B14978002930F8221010D069
:1043700048F6BF74214081F010010FE001884BF630
:10438000BF72114081F4805181F010011943018006
:1043900007E04BF68F74214081F48051194320F8D7
:1043A0002210002010BD2DE9F0410D460646896916
:1043B00095F801C00023AA7A022728690C4648F222
:1043C0008008BCF1010F05D0814252D90446081A79
:1043D000A8614FE0814203D90446081AA86100E0B1
:1043E000AB617AB1287836F820104906B6F850103B
:1043F00007EBC000084406EB4000C0F8004412D5AB
:104400002A8911E0A3B2AA883046696900F0C5F88C
:10441000B6F85000297807EBC101084406EB4000CC
:10442000C0F800441CE0EA88A3B23046696900F095
:10443000B4F8687848F68F7210B1012807D00FE001
:10444000287836F82010114048F2C00205E028789C
:1044500036F8201011404CF28002114326F820104B
:10446000287836F8201048F6BF72114081F03001EC
:1044700065E0AB6106234FF6FF711AB1BCF1000F86
:1044800019D054E0B6F850002A783E2C03EBC20253
:10449000104406EB400202F5806237D9C4F34F1096
:1044A000E30630D001EA802040F4004001E001EA58
:1044B000802010603BE0B6F850002A783E2C07EBD5
:1044C000C202104406EB400202F580620BD9C4F32D
:1044D0004F105FEAC46C01D1401E80B201EA802017
:1044E00040F4004008E0C4F34F005FEAC47C01D010
:1044F000401C80B201EA8020106068780028C1D09A
:1045000001280AD013E0401E80B2CBE7C4F34F006D
:10451000E307CCD0401C80B2C9E7B6F85000297838
:1045200007EBC101084406EB4000C0F800442878BE
:1045300036F820104BF68F72114081F4405141EA59
:10454000080126F820100020BDE8F08130F8401F57
:1045500041F43D4101800020704700000148FCF714
:1045600045BF00005C080020B0F8440070475B1CA9
:1045700000EB42005B0800F5806005D030F8042BAA
:1045800021F8022B5B1EF9D170470020704711B94A
:104590008021A0F84C100020704710B55B1C00EB88
:1045A00042005B0800F5806009D011F8012B5B1E0A
:1045B00011F8014B42EA042220F8042BF5D110BD7A
:1045C000FEE72DE9F0414F1E00EBC7010446D1E99B
:1045D000000115461E4637F006020DD02A46334626
:1045E00000F05CFE7F1E04EBC703D3E9002300F05C
:1045F000EDFB37F00602F1D1022F25D0042F13D0A6
:10460000062F18BFBDE8F0812A46334600F046FE6B
:10461000D4E90A2300F0DAFB2A46334600F03EFED6
:10462000D4E9082300F0D2FB2A46334600F036FED8
:10463000D4E9062300F0CAFB2A46334600F02EFEDA
:10464000D4E9042300F0C2FB2A46334600F026FEDC
:10465000D4E9022300F0BAFB2A46334600F01EFEDE
:10466000D4E90023BDE8F04100F0B0BB00221346BE
:104670001046014900F066BC0000F03F012201F045
:1046800070BB002213461046114600F05BBC0000D0
:104690002DE9F04DC84A002490B0914205DA21F08E
:1046A0000043934201D805D120B110B0BDE8F04DD0
:1046B000FFF7E4BFB1F5801F1BDA53EA000209D00F
:1046C000002911DA0120FBF7E0FD10B0BDE8F04D44
:1046D000FFF7D7BF0220FBF7D8FDFFF7C7FF10B0E9
:1046E00081F00041BDE8F08D6FF03504362201F015
:1046F00038FB04EB2152C1F31308B049A2F2FF3397
:10470000414401F4801282F07F6103EB225281F078
:104710004051009241EA08010022A94B00F0C8FE76
:10472000044608F10200A74EC0F313000D467E4474
:10473000032867D2D6E90023204600F05BFD1ED196
:104740000098002802BFD6E9000110B0BDE8F08D46
:1047500000F08CFD07460C469B4A9C4B00F09EFDEA
:1047600006460D469A4A9B4B3846214600F096FD78
:1047700010B032462B46BDE8F04D00F027BB4FF09D
:104780005532954B2046294600F088FD0022934B78
:1047900000F082FE06460F4622462B46104619467A
:1047A00000F07CFD32463B4600F078FD064600985E
:1047B0000F46F0B100F05AFD80468A46824A834B8C
:1047C00000F06CFD32463B4600F066FE22462B466A
:1047D00000F06EFE05460C467D4A7E4B4046514633
:1047E00000F05CFD10B02A462346BDE8F04D00F015
:1047F0005FBE0B4610B0324620462946BDE8F04D5C
:1048000000F056BE00224FF08043204600F0DEFA52
:1048100002460B462046294600F094FB06460F460A
:10482000009800F023FDCDE9040132463B461046D6
:10483000394600F033FD0C9069480C9A40440190D1
:1048400009910B46104600F029FD82460246654854
:104850008B46C8F151080B4608F5D7280321784448
:10486000FFF7AFFE52465B4600F018FD0A905E4827
:104870000D9152465B4604217844FFF7A2FE099B46
:104880000C9A00F00BFD844601980D9B40EA080845
:1048900060460A9A00F09AFA83460891B8F1000F30
:1048A0004EDD4FF0FF322046294601F05AFA2246EB
:1048B0002B4600F0F3FC804600988A4660B3DDE9A1
:1048C0000401414A414B00F0E9FC099100905A462D
:1048D00040465146089B00F079FA32463B4600F0CC
:1048E000DDFC099B009A00F071FA4246534600F045
:1048F000D3FD22462B4600F0DBFD04460D46DDE9E4
:104900000401334A334B00F0C9FC10B022462B4659
:10491000BDE8F04D00F0CCBD5A464046089B00F083
:1049200055FA32463B4600F0B9FC4246534600F089
:10493000B3FD10B022462B46BDE8F04D00F0ACBDF3
:10494000009840B3DDE904011F4A204B00F0A6FCAB
:1049500080468A465A4620462946089B00F0A8FD14
:1049600032463B4600F09AFC4246534600F0A0FD1A
:1049700022462B4600F09CFD04460D46DDE904016D
:10498000134A144B00F08AFC10B022462B46BDE8B7
:10499000F04D00F08DBD0B465A462046294600F0EA
:1049A00087FD32463B4600F079FC10B022462B468C
:1049B000BDE8F04D00F070BD0000F07F645F0900BD
:1049C0000000F03F5E170000763C7935EF39EA3D94
:1049D0000000E0FE422EE63F5555D53F0000E03F87
:1049E00086EBF9FFF6150000F4150000CC4F98B0E7
:1049F0000024FC60FCF75EFBFEF7EAFBFDF7C0FF5E
:104A0000C848416941F0010141614069002200F05C
:104A10000100119011460B20FCF7BCFB0B20FCF7AA
:104A2000ADFBFDF749FFFEF703F8BF484FF08041AB
:104A3000C0E9001440F65F11C0E902410461FDF7CE
:104A4000CDFC00B1FEE74FF4805611A9B64811968F
:104A5000FDF714FD00B1FEE7159415A9B2481694B0
:104A6000FDF794FC00B1FEE7FEF712F8FEF760F8E0
:104A7000AD4A00217832002002EB0013934623F860
:104A80001140401C0828F7DB491C0829F3DBA74824
:104A90000121A74D81800560847184600223C46078
:104AA00083820561847584610422C4618284056205
:104AB00080F8264084628A02C4628286056380F898
:104AC00036408463CA02C463A0F84420056480F8B9
:104AD00046408464C464A0F85460056580F856407C
:104AE00084654A03C465A0F86420056680F86610F2
:104AF00084668A03C466A0F87420056780F876107F
:104B00008467CA03C467A0F88420C0F8805080F886
:104B10008610C0F88840002100F1900C4E1EC0F8AD
:104B20008C4001EB41000CEB00104FF07E52C46052
:104B3000046044608460C0E90442C4610676046293
:104B400084624462491CC4620929EADBDFF8E4811B
:104B5000DFF8E4A1DFF8E4E1DFF8E4C1794E0021F9
:104B600001EBC100784A46F8208006EB8000491C22
:104B7000C0E9034CC0E90624744A4261C0E901AEB1
:104B800080F820400629EBDBFF208DF831009846A5
:104B90008DF8303000201E234FF0080C6A4602EBDF
:104BA000C00188704B700DF830C0401C0628F5DB42
:104BB0005E4840214438FBF739FBA2463C70202078
:104BC0000124CDF84080CDE90D0401462246284657
:104BD000FCF75CFA0DA92846FCF770F95248FDF77E
:104BE00041FCFC704E484078002875D00024002716
:104BF0003D46D84608EB051030F8140000F0C4FE1E
:104C0000394600F06BFD6D1C0746082DF2DB6FF096
:104C1000020101F0D4F801464D484E4A0844904242
:104C20004CD24D4800F0CEFD4FF07E5100F0F2FF27
:104C300004EBC40556F8251000F0EEFE00F022FD4E
:104C4000FFF726FD00F090F88046014600F0E4FEF4
:104C50000746414600F0E0FE06EB8505296900F0B5
:104C6000DBFE81463846E96800F0D6FE074640463E
:104C7000A96800F0D1FE696800F030FD394600F007
:104C80002DFD494600F02AFD01464FF07E5000F010
:104C900099FD324900F0BEFF0746696900F088FFC0
:104CA00008D83846A96900F083FE03D8012085F8AA
:104CB000200001E085F820A0EF6107E004EBC400CC
:104CC00006EB8000264980F820A0C161641C062CF8
:104CD0008DDB134981F801A011490878002881D0A3
:104CE00081F800A000206B4600EBC00106EB8101BB
:104CF00003EBC00291F82040D470C969401C516098
:104D00000628F1DB0948322219464438FBF75CFAE1
:104D10000649402244391348FEF754FC62E700007C
:104D200030000020001002405401002090020020BA
:104D3000000C014000E09245FD5D3D3A16CF62391E
:104D4000F1F1C633D0040020000070420000A04002
:104D5000FFFFBFBFFFBF3F0500F07F453393884390
:104D600000409AC4E005002021F00042A2F1605208
:104D7000B2F5801F01F0004328BFD2F17F6C0BD940
:104D80005FEA001C43EAC20242EB507018BF704752
:104D900028BF20F001007047B2F5801FBCBF184645
:104DA00070474FEA410C1CF5001F02D2084600F084
:104DB000FABE70B500F01CFB00000089FFF7F6BFDB
:104DC0004FF00040A0F580007047000010B591EA58
:104DD000030F48BF83F0004300F17283841A71EB24
:104DE000030C05D2121943EB0C03001B61EB0C0101
:104DF000DFF824E14FEA1154A4EB135C1EEA430FE1
:104E000018BF9EEA445F73D023EA0E03DCF1200E44
:104E100021EA045143F4801332D322FA0CFE10EB42
:104E20000E0023FA0CFE41EB0E01CCF1200E03FA2A
:104E30000EFE10EB0E0051F10001B1F5801FCCF118
:104E4000200E32D201EB045112FA0EF2BDE81040EE
:104E500058BF7047401C38BF5FEA420218BF704716
:104E6000002814BF20F0010041F100014FEA410386
:104E700013F5001F38BF7047A1F1C04100F006BB19
:104E8000012A43EB0302ACF1200CDCF11F0E32BF10
:104E90004FF0000E23FA0CF310EB030041EB04512A
:104EA000B4EB115FD0D0A1EB045101F5801149089A
:104EB0005FEA300001EB04510ED350F1000038BF1F
:104EC00012FA0EFE08D1BDE81040C9E7401C38BFF9
:104ED0005FEA4202CAD1C3E7BDE810404FEA41038E
:104EE00013F5001F38BF7047A1F1C04100F0CEBAE2
:104EF0009EEA445F08D011EA5E0FBDE8104004BF8F
:104F000001F0004100207047BDE8104070B500F08E
:104F10006FFA00BF64FBBE3E0000E0FF02494FF0A5
:104F2000000000F0ECBE00BF0000F87F491058BF41
:104F3000C1F140415B1058BFC3F140438B42EFF3D6
:104F4000008070472DE9C04130B4DFF8A0C23CEAD0
:104F5000111418BF3CEA131400F0EC8081EA030539
:104F60001CEA111444EAD57418BF1CEA131500F0AA
:104F7000C780A4EB05044FF0004545EAC12145EA8E
:104F8000C32341EA505143EA525304F17F749942DA
:104F900004F500344FEAC0204FEAC22208BF904215
:104FA00000F09C804FEA13650FF24016765D4FEAE1
:104FB000134506FB05F7C7F1807706FB07F74FEAB5
:104FC000D737A7FB03687642C8F58038A7FB06CE23
:104FD00038BFA8F1010807FB08E64FF0000EA6FB5A
:104FE000028CE6FB03CEDCF1000CCEF1004E38BFA4
:104FF000AEF1010EA6FB0C584FF000074FF0000574
:10500000E6FB0E87A1FB08C6A0FB07CE16EB0E063B
:1050100045F10005E1FB076515F1E04E7EBFA4F503
:1050200080345FEA46066D4116F1800745F10005C0
:105030004FEA17274FEA066647EA0567A6F1DE46FC
:10504000B6F1805F4FEA15251FD9384624F0010CD0
:1050500005EBC471BCF1FE6F01EB0C1102D8F0BC82
:10506000BDE8008124425CBF01F5801E9EEAC47F3A
:1050700002D4F0BCBDE80081244238D4F0BCA1F1D8
:10508000C041BDE8004100F001BA4FEAD22242EA35
:1050900043524FEAD323A7FB02864FEAD02040EACF
:1050A000415007FB03661EEA0E0F4FEAD12105FBB4
:1050B000026658BFA6EB0056B6EB00564FEA520EFA
:1050C0004EEAC37E18EB0E0E56EB530EBDD518EB11
:1050D00002085E417F1C55F10005B6E74FF48015CC
:1050E0004FF000074FF000064FF00008ADE7F0BCAE
:1050F0004FF0000001F1C04101F00041BDE8008126
:1051000011EA0C1F0CEA131500D00CE013EA0C1F77
:1051100000F025804FF00000F0BC81EA030101F0AF
:105120000041BDE80081F0BCBDE8004181EA030117
:1051300000F0ACB9F0BCBDE8004170B500F058F922
:10514000097EFC3E00F007B881EA03014FF0000041
:1051500001F00041704781EA030100F097B9F0BC0B
:10516000BDE800414FF0000021497047FFFDFBF909
:10517000F7F5F4F2F0EEEDEBE9E8E6E4E3E1E0DE8A
:10518000DDDBDAD8D7D5D4D3D1D0CFCDCCCBCAC8FC
:10519000C7C6C5C4C2C1C0BFBEBDBCBBBAB9B8B723
:1051A000B6B5B4B3B2B1B0AFAEADACABAAA9A8A816
:1051B000A7A6A5A4A3A3A2A1A09F9F9E9D9C9C9BE4
:1051C0009A9999989797969595949393929191908F
:1051D0008F8F8E8E8D8C8C8B8B8A89898888878720
:1051E0008685858484838382828181800000FF0795
:1051F0000000F87F51EA030C17D41CF5801F58BF3C
:10520000BCF5801F00F10680994218BF704708BFA7
:105210009042704707D711F5801F58BF13F5801FC4
:1052200019D499427047894270471CF5801F08D5F0
:10523000BCF5801FF7D58B4218BF704708BF82426C
:1052400070474FF4001C1CEB410F38BF1CEB430FA1
:1052500001D28B42704770B500F0CAF89224490021
:105260004FF000514FF08053FFF760BE10F0004246
:1052700048BF4042B0FA80F310FA03F10AD0C3F1FC
:105280001D0303F580634FEA415002EB035202EB2A
:10529000D12170474FF0000070470000DFF848C18F
:1052A00070B51CEA111E1EBF1CEA13159EEA0C0FF6
:1052B00095EA0C0F00F06F8081EA030423EA4C1397
:1052C0004EEAD47E21EA4C1141F4801143F480135C
:1052D000AE44A1FB024CA0FB0365AEF17F7E361904
:1052E00055EB0C05A1FB034C4CF10003A0FB021C89
:1052F00016EB0C06654153F10003094218BF46F056
:10530000010613F4007F0BD14FEA03314FEA053059
:10531000340341EA155140EA16506FF003020AE0E7
:105320004FEAC3214FEAC520F40241EA555140EA51
:1053300056506FF0020202EB2E4201EB025585EA55
:10534000CE710AD05FEA440C18BF24F0004450F13B
:10535000000041F1000120EAD47040F2FE7C624579
:1053600000D270BDA84214BF4FF080444FF04044BB
:10537000002E08BF0024BEF1806FA8BFA1F1C0417C
:10538000BDE8704080F282804FF0000001F1C04122
:1053900001F0004170479EEA0C0F0CEA131518BF8C
:1053A00095EA0C0F06D04FF0000081EA030E0EF0D4
:1053B000004170BD00F01CF88900013E00F007B804
:1053C00000F009B84FEA430C5FEA5C5C08D081EA60
:1053D000030100F05BB84FEA410C5FEA5C5CF6D178
:1053E0004FF00000014970470000FF070000F87F00
:1053F0000EF1020E2EF0030E5EF8046B364205D459
:10540000012A43EB030515F5001F12D8012841EBD3
:10541000010C1CF5001F0CD80ED14FEAD17C15F5FC
:10542000001F0CEB4C0C0CF1020C08BF4CEBD37CB6
:1054300004E04FF0080C01E04FEAD37C0CEB4C0584
:1054400026FA05F606F00706B6F1040C06D20EEBB6
:10545000860CBDE870404CF0010C6047DFE80CF0B2
:10546000090B02024FF000414FF00000A1F50021AE
:1054700070BD19461046012851EB010418BFD4F540
:10548000001484BF002001F0004170BD0808A0F5A1
:1054900000114FEA3101704791EA030F10B581F016
:1054A00000413FF59BAC83F0004300F009B80000D9
:1054B00010B591EA030F48BF83F000433FF58EAC6F
:1054C000841A71EB030C07D212198CF0004C43EBD9
:1054D0000C03001B61EB0C01DFF8A4E14FEA11544F
:1054E000A4EB135C1EEA430F18BF9EEA445F00F072
:1054F000B08023EA6E03524221EA0451C3EB6E03EB
:1055000038BF5B1EDCF1200E25D322FA0CFE10EB17
:105510000E0043FA0CFE41EB0E01CCF1200E03FA13
:105520000EFE10EB0E0051F10001CCF1200E29D43B
:1055300012FA0EF201EB0451BDE8104058BF70475B
:10554000401C1CBFB2F1004F704700280CBF491C23
:1055500020F00100704712EB020E43EB030218BF6C
:105560004FF0010E4EEA4202ACF1200CDCF11E0EAF
:1055700054D943FA0CFE10EB0E0051F1FF31CCF17F
:105580001E0ED5D50EF1010E12FA0EFE404141EB72
:10559000010101EB445C5FEA5C5C10D910EBDE704A
:1055A00001EB045138BFBEF1004FBDE8104018BFF9
:1055B000704700280CBF491C20F00100704730D212
:1055C0004FEAD42C11F5001124F400641BD0B1FA79
:1055D00081F20B3AA41AA41ED2F12003914030FAB2
:1055E00003F31943904001EBCC71002C01EB045103
:1055F000BDE81040A8BF704701F1C0414FF0000066
:1056000001F000417047B0FA80F310FA03F100D1C5
:1056100010BDE41A173C4805C90AE4E701EB045140
:1056200010BD491001EB0451BDE810404FEA3000B5
:1056300002E04FF0000170474A0008BF0042F8D076
:10564000B2F5001F28BF704701F000414FF0000085
:1056500070479EEA445F07D011EA5E0FBDE8104034
:1056600004BF002100207047BDE8104070B5FFF76F
:10567000BFFE00BF40DFF63E83F00041104670479A
:105680000000E0FF43004FEAD30C4FEA3C0C4340DC
:105690001FBF40070CF1605113F0FE4F70471CF024
:1056A000006F03D100200CF0004170470CF0004364
:1056B00043EA507010B540EACC0000F02EFA00BF6B
:1056C000000000924FEA0001FFF7E0BE4FF00041FA
:1056D0004FF00000A1F500217047000090EA010F93
:1056E00048BF81F0004100F19C82421A3CBF801A01
:1056F00089184FEAD0524FF07F4C1CEA410FA2EBC1
:10570000D15318BF9CEA026F00F03B804FF0004C71
:105710004CEA00204CEA012121FA03FC10EB0C0CAE
:105720001ED202F1FF325FEA1C2040EBC25038BFAC
:1057300070471CF07F0F4FEA400C18BFBCF17F4F41
:1057400038BF7047C3F12003994008BF20F0010023
:10575000BCF17F4F38BF7047A0F1C04000F023BAC2
:105760004FEA3C00000A40EBC25028BF1CF0FF0F7C
:105770004FEA400CE6D018BFBCF17F4F38BF7047EE
:10578000EAE79CEA026F05D010EA5C0F08BF00F060
:105790000040704710B500F0C0F900BF64FBBE3E8A
:1057A000014800F0ACBA00BF0000C07F401058BFF5
:1057B000C0F14040491058BFC1F140418142EFF370
:1057C000008070474FF47F0C1CEAD0121EBF1CEA09
:1057D000D11392EA0C0F93EA0C0F00F0858090EA47
:1057E000010F48BF42F4807240F4000C41F4000005
:1057F0002CF07F4120F07F4000B58142A2EB0302F4
:105800000FF2081CACEB504EC0F100009EF800E017
:105810004FEA4E0E00FB0EFC38BF49004FEA2C1C2D
:1058200002F5FA020CFB0EF34FEACE1E4FEA112CE2
:105830004FEAC1210EEB635E42EB22420EFB0CFCF1
:105840004FEA1C5300FB03114FEA112C4FEA0131C0
:105850000EFB0CFC4FEADC4C00FB0C11C14228BFD4
:1058600009184CEB03335DF804EB10EB410143EBFB
:10587000C250B2F57C0F38BF704729D512F0F00F37
:105880001CBF00F1C04000F00040704700818283DF
:105890008485868788898B8C8D8E8F91929395963F
:1058A00097999A9C9D9FA0A2A3A5A7A8AAACAEB0C9
:1058B000B2B3B5B7B9BCBEC0C2C5C7C9CCCED1D4CE
:1058C000D7D9DCDFE2E6E9ECF0F3F7FAFE000000FE
:1058D0004FEA400C0CF1807CBCF17E4F28BF704732
:1058E000B0F1C04000F05FB990EA010F0CEAD113AB
:1058F00048BF42F48072624538BF634507D213F453
:105900007F0F16D080EA010000F00040704710B50C
:1059100000F003F9097EFC3E00F005B880EA0100C2
:1059200000F00040704780EA010000F0004000F005
:105930003AB912F47F0F04BF0248704780EA0100B1
:1059400000F031B90000C07FC10DD1F19E0206DB2D
:105950004FEA002343F0004323FA02F0704700426D
:1059600007D54FEA4001B1F1FE4F02D24FF00000DF
:10597000704710B500F0D1F849922480002070479C
:105980006FEA200070470000B0FA80F310FA03F2CB
:10599000C3F19D030AD0D90501EB1220530638BF8D
:1059A000704700F1010008BF20F0010070470000BF
:1059B00050EA010C00F113801CF5000F58BFBCF534
:1059C000000F01D48842704707D710F5000F58BF69
:1059D00011F5000F15D488427047894270471CF5B5
:1059E000000F04D5BCF5000FF7D5814270474FF08A
:1059F000807C1CEB400F38BF1CEB410F01D2814271
:105A0000704710B500F089F8922449004FF000501B
:105A10004FF08051FFF7CABE4FF47F0C1CEAD01242
:105A20001EBF1CEAD11392EA0C0F93EA0C0F00F090
:105A3000478090EA010F48BF42F480724FF0004C5B
:105A40004CEA00204CEA012102EB0302A0FB011307
:105A5000A2F50002002918BF43F001035B0028BF34
:105A60004FEA330342EB22425FEA132C4CEBC25065
:105A70002EBFBCEB436FB2F57C0F70474FEA036C4F
:105A8000BCF1004F08BF20F00100B2F57C0F38BF19
:105A900070470BD582F0FF0212F5803FC8BF7047F8
:105AA00000F1C040D8BF00F00040704700F5000C86
:105AB0005FEA4C0C48BF7047B0F1C04000F073B8CB
:105AC00090EA010F0CEAD11348BF42F4807262459C
:105AD00038BF634504D280EA010000F000407047FF
