:020000040800F2
:10000000801200200101000863310008AF2E0008B3
:1000100061310008450A0008494C00080000000052
:100020000000000000000000000000001D36000875
:10003000570C000800000000CD3400081F360008EF
:100040001B0100081B0100081B0100081B01000820
:100050001B0100081B0100081B0100081B01000810
:100060001B0100081B0100081B0100082D0C0008E3
:100070001B0100081B0100081B0100081B010008F0
:100080001B0100081B0100080D0900081B010008E6
:10009000E54B00081B0100081B0100081B010008BC
:1000A0001B0100081B0100081B0100081B010008C0
:1000B000993800081B0100081B0100081B010008FB
:1000C0001B0100081B0100081B0100081B010008A0
:1000D0001B0100081B0100081B0100081B01000890
:1000E0001B0100081B0100081B010008DFF80CD0F1
:1000F00000F07CFB004800479D5000088012002063
:100100000648804706480047FEE7FEE7FEE7FEE7B1
:10011000FEE7FEE7FEE7FEE7FEE7FEE751380008F0
:10012000ED000008202A04DB203A21FA02F0002129
:10013000704721FA02F3D040C2F1200291400843F7
:100140001946704740EA01039B0703D009E008C93C
:10015000121F08C0042AFAD203E011F8013B00F88C
:10016000013B521EF9D27047D2B201E000F8012BD8
:10017000491EFBD270470022F6E710B513460A4627
:1001800004461946FFF7F0FF204610BDF0B480EAA0
:100190000102D40F4200B2EB410F02D202460846E0
:1001A00011464A0042D0C30DDDB2C1F3C752AD1AA9
:1001B000202D35DAC1F3160141F4000204B1524298
:1001C000C5F1200602FA06F12A411044B3EBD05FD4
:1001D00023D0C4B1012DA0EBC35009DCF0BC4FF01B
:1001E000004202EAC352DBB200F5000000F007B99A
:1001F000400000F1807000EBC350A0F1807040EA35
:10020000D170490009E0490841EAC071A0EBC35030
:1002100000F50000400800EBC350F0BC00F0E6B869
:100220006142012202EB4101001BF6E7F0BC70477E
:1002300081F00041AAE780F00040A7E780EA0102D0
:1002400010B502F00043400022D04A001FD0010E3A
:1002500001EB1261C0F35600C2F3560240F40000F5
:1002600042F40002A0FB022000047F39140400D0F5
:10027000401C50EA124001D44000491EC2B20C0694
:1002800004EBD010401C4008802A02D003E000207C
:1002900010BD20F00100002900DA0020184310BD35
:1002A00030B480EA010202F0004530F0004221F053
:1002B000004013D090B1C30DD40DC2F31601C0F3AA
:1002C0001600E41A41F4000140F400027D3491422A
:1002D00001D3641C00E04900002C02DA30BC00208D
:1002E00070474FF400000023914201D3891A034361
:1002F00040084FEA4101F7D151B1914202D14FF08C
:10030000004105E002D24FF0010101E06FF0010170
:1003100003EBC450284430BC00F068B8420005D05C
:10032000C0F3C7525242914201DC0020704700EBFB
:10033000C150704796230022114600F060B820F0AB
:100340000040C10DC0F3160040F400007F2901DA1F
:1003500000207047962903DCC1F19601C840704720
:1003600096398840704700F0004230F000400AD0D3
:10037000C10D01F56071C0F3160042EA0151C208D7
:1003800040071143704700200146704701F00043C9
:1003900030B421F0004150EA010206D00A0DA2F566
:1003A0006072C1F31301002A02DC30BC00207047E8
:1003B000440F44EAC104C100E01830BC00EBC25055
:1003C00000F014B8002801DBC0F10040002901DB77
:1003D000C1F1004181427047002801DBC0F10040BB
:1003E000002901DBC1F10041884270470029A8BF04
:1003F0007047401C490008BF20F00100704710B44E
:10040000B0FA80FC00FA0CF050EA010404BF10BC02
:10041000704749B1CCF1200421FA04F411FA0CF12F
:1004200018BF012121430843A3EB0C01CB1D4FEA68
:1004300000614FEA102042BF002010BC704700EB63
:10044000C35010440029A4BF10BC7047401C490091
:1004500008BF20F0010010BC70472DE9FE4F804618
:1004600081EA0300C00F0C46009021F0004123F008
:100470000045B8EB0200A94105D24046214690460E
:100480001C460B46024623F00040104347D0270D80
:10049000C7F30A00C3F30A510290401A01904028A2
:1004A0006BDAC3F3130040F4801B0098924620B12E
:1004B0000023D2EB030A63EB0B0B01985946C0F102
:1004C0004002504600F0A4F906460D4650465946F3
:1004D000019A00F0ACF910EB08006141002487EAB2
:1004E000115284EAE7731A4340D0009A62B3019A2A
:1004F000012A4FEA075215DC001B61EB02014FF0A5
:10050000004202EA0752CDE90042001C41F5801189
:1005100032462B4600F0ACF903B0BDE8F08F404600
:100520002146F9E7001B61EB0201001C41F5801335
:1005300000185B412018A2F5001747EB030140EAC1
:10054000D570B6196D4111E06D084FEA360645EADF
:10055000C0754FEA0752001B61EB0201001C41F518
:10056000801149084FEA30000019514132462B46AC
:1005700003B0BDE8F04F00F06CB9009801224000D4
:100580000023D0EB020263EBE073009821464FEAB0
:10059000E074B8EB000061EB0401E9E783F000438D
:1005A0005BE781F0004158E72DE9FE4F81EA030443
:1005B00004F0004421F0004100944FF0000B23F0C0
:1005C000004350EA01045ED052EA03045BD0C3F357
:1005D0000A54C1F30A552C44A4F2F3340194A0FB4D
:1005E0000254C1F3130141F48011C3F3130343F424
:1005F000801301FB024400FB034E840A970A44EA7D
:10060000815447EA8357A4FB076802958D0A05FBCE
:1006100007854FEA932C04FB0C542705029D4FEAF3
:10062000065847EA1637B5EB08056EEB070C870E40
:10063000920E47EA811742EA8312A7FB0201B6EB4A
:100640000B0164EB00042B0D43EA0C335E1844EB02
:100650001C50DA465146E7FB0201C5F313044FEA8A
:100660000B3343EA14534FEA0432019C43EA060376
:10067000A4F10C040294009CCDE900B400F0F8F859
:1006800003B0BDE8F08F00200146F9E72DE9F04DF9
:1006900081EA030404F0004B21F0004514464FF0BA
:1006A000000A23F0004150EA050220D054EA01027A
:1006B0001DD0C5F30A570246C5F31303C1F3130057
:1006C000C1F30A5640F4801543F48013A7EB0608E3
:1006D000101BD64608F2FD3873EB050002D308F173
:1006E000010801E092185B41B8F1000F03DA002025
:1006F0000146BDE8F08D00204FF480110646844687
:100700000EE0171B73EB050705D3121B63EB050304
:1007100006434CEA010C49084FEA300092185B414D
:1007200050EA0107EDD152EA030012D082EA040038
:1007300083EA0501084305D0101BAB4106D2012214
:10074000002306E000224FF0004302E06FF00102B8
:1007500053101AEB06004CEB085110EB0A0041EB6A
:100760000B01BDE8F04D00F074B870B521F0004306
:1007700003430CD0C1F30A550024D5EB040564EB08
:100780000403D617AD1AB34102DB0020014670BD49
:10079000201841EB025170BD0EB5C10F80EAE07028
:1007A0000844CA07002140F233438DE80E000A4690
:1007B0000B4600F05DF803B000BD000030B5041E2C
:1007C00071F1000404DB4FF00044404264EB01018E
:1007D000141E73F1000405DB1C464FF00043524227
:1007E00063EB04038B4208BF824230BD064C074DC9
:1007F00006E0E06840F0010394E8070098471034F1
:10080000AC42F6D3FFF776FC705400089054000811
:10081000202A04DB203A00FA02F1002070479140C0
:10082000C2F1200320FA03F3194390407047202AB5
:1008300006DBCB17203A41FA02F043EAE07306E008
:1008400041FA02F3D040C2F1200291400843194618
:10085000704710B5141E73F1000408DA401C41F112
:10086000000192185B411A4301D120F0010010BD34
:100870002DE9F04D92469B4611B1B1FA81F202E0AA
:10088000B0FA80F220329046FFF7C2FF04460F46CE
:1008900040EA0A0041EA0B0153465A46084313D086
:1008A000114653EA010019D0C8F140025046FFF743
:1008B00039FC05460E46504659464246FFF7A8FF0A
:1008C000084305D0012004E020463946BDE8F08DFC
:1008D0000020054346EAE0762C4337430A98630537
:1008E000E40AA0EB08000022FD0A44EA47540A305B
:1008F00002D500200146E9E7010510196941DDE94B
:10090000084500196941BDE8F04DA2E7014800F033
:1009100071BA00001401002070B5044600688168B7
:10092000C943C9071BD1816821F00101816000F032
:10093000AFFE05460EE000F0ABFE401B022809D9D1
:10094000A06A40F01000A062E06A40F00100E0629E
:10095000012070BD20688068C043C007EBD0002034
:1009600070BD10B50146406A826A12F0500F05D082
:10097000006A026BBDE8104008461047816A41F4E6
:100980000071816201688968C1F3424107290CD175
:10099000C16851B9816A21F480718162816AC90498
:1009A00003D4816A41F00101816200F00BFA10BDAD
:1009B00010B5406A816A41F040018162C16A41F02C
:1009C0000401C16200F015FA10BD10B5406A00F0D4
:1009D0000FFA10BDF8B5002604460096006881683D
:1009E000C943C90727D0816841F0010181601348DC
:1009F00013490068B0FBF1F000E0401E00900028B1
:100A0000FBD100F045FE054610E000F041FE401B22
:100A100002280BD9A06A40F01000A062E06A40F002
:100A20000100E06284F824600120F8BD206880683D
:100A3000C043C007E9D10020F8BD00000C01002030
:100A400040420F00FEE70020704700207047000082
:100A50002DE9F84F6F4800251027D0F818026E4E88
:100A60004FF00108DFF8B491DFF8B4A1DFF8B4B1BA
:100A70000090C7E00098441960780A2804D0142830
:100A80007ED0FF287AD1B6E0A078092876D200EB94
:100A9000400006EB0010E1780176A078616900EB78
:100AA000400006EB0010C160A078216900EB400017
:100AB00006EB00108160A078E16800EB400006EBD7
:100AC00000104160A078A16800EB400006EB001028
:100AD0000160A078616800EB400006EB0010C16186
:100AE000A078A16900EB400006EB00100161A0783E
:100AF000E16900EB400006EB00104161A0784FF087
:100B00007E5100EB400006EB0010006920F0004031
:100B1000FFF762FC06D2A078002100EB400006EB54
:100B200000100161A0784FF07E5100EB400006EB11
:100B30000010406920F00040FFF74EFC07D2A0787B
:100B40004FF07E5100EB400006EB00104161A078B1
:100B500000EB400006EB001041690069FFF73CFC28
:100B600006D2A07800EB400006EB0010016941615D
:100B700072B689F80080CBF800A062B63DE0FFE7CE
:100B8000A078062839D200EBC0022748D4F8031019
:100B900040F82210A178D4F8072001EBC10100EB46
:100BA00081014A60A178D4F80B2001EBC10100EB70
:100BB00081018A60A178D4F80F2001EBC10100EB1C
:100BC0008101CA60A178D4F8132001EBC10100EBC8
:100BD00081010A61A178D4F81B2001EBC10100EB6F
:100BE00081018A61A178D4F8172001EBC10100EBE3
:100BF00081004261BCE74025BAE720782844C5B2AD
:100C0000402D04D27F1E17F0FF077FF433AF002082
:100C1000BDE8F88FE4050020240300203000002008
:100C2000E09304003C000020D4040020014800F0C0
:100C3000BBBA0000AC05002010B5046863604368CF
:100C4000102B036803D099600068C26010BD9A60E1
:100C50000068C16010BD7047FEE77047F8B500231B
:100C6000009390F824209E46012A1ED0012280F88D
:100C700024204A681F254FF47874072A17D2066883
:100C8000776B94FAA4FCBCFA8CFC521E02FB0CFCA1
:100C900005FA0CF5AF4394FAA4F4B4FA84F40D68A1
:100CA000624395402F4377632DE00220F8BD06682C
:100CB0000D2A14D2376B94FAA4FCBCFA8CFCD21F18
:100CC00002FB0CFC05FA0CF5AF4394FAA4F4B4FA59
:100CD00084F40D68624395402F43376313E0F76A4D
:100CE00094FAA4FCBCFA8CFC0D3A02FB0CFC05FA4D
:100CF0000CF5AF4394FAA4F4B4FA84F40D6862439B
:100D000095402F43F7620A683825072604680A2AA7
:100D100014D3E76895FAA5FCBCFA8CFC0A3A02FBEE
:100D20000CFC06FA0CF6B74395FAA5F5B5FA85F56D
:100D30008E686A4396403743E76012E0276995FA68
:100D4000A5FCBCFA8CFC02FB0CFC06FA0CF6B743C3
:100D500095FAA5F5B5FA85F58E686A43964037434E
:100D600027610A68102A01D0112A20D1124C02688A
:100D7000A24217D19468240219D4946844F4000460
:100D800094600968102912D10C490D4A0968B1FB19
:100D9000F2F101EB8101490000E0491E00910029B8
:100DA000FBD104E0816A41F020018162012380F8D7
:100DB00024E01846F8BD0000002401400C0100208A
:100DC00040420F0008490889072801D101204870D6
:100DD0000879401C10F0FF00087104D14FF4005155
:100DE000024800F04BBC704730000020001001406A
:100DF0007047704710B5044600684168890626D5DB
:100E00000168890723D5A16AC90603D4A16A41F400
:100E10000071A1628168C1F34241072910D1E168E4
:100E200071B9416821F020014160A06A20F480700E
:100E3000A062A06AC00403D4A06A40F00100A062CE
:100E40002046FFF7BFFF21686FF01200086020689E
:100E5000416809062ED5016849072BD5A16AC90644
:100E600003D4A16A41F40051A1628168C1F3023147
:100E7000072909D04168490515D48168C1F3424169
:100E8000072910D1E16871B9416821F08001416002
:100E9000A06A20F48050A062A06AC00503D4A06AB2
:100EA00040F00100A0622046FFF7D7FE21686FF0F6
:100EB0000C0008602068416849060DD50068C0072D
:100EC0000AD0A06A40F48030A062204600F0A0F86A
:100ED00021686FF00100086010BD00002DE9F041AD
:100EE00004004FF0000514D0A06A002628B9E6627D
:100EF00084F82460204600F08DF82046FFF70CFDB2
:100F0000A16A01F01001014304D0A06A40F0100072
:100F1000A06277E0A16A21F4885141F00201A16248
:100F20006268E169E3680A43022191FAA1F1B1FA2A
:100F300081F103FA01F10A43A1684FF48077B942C5
:100F400008D0012906D00021D4F814C0BCF1010F4B
:100F500002D00AE03946F7E7F3B1A36A43F0200371
:100F6000A362E36A43F00103E3622368D3F804C099
:100F70002CF4694C4CEA010CC3F804C021688B685E
:100F8000DFF884C003EA0C0313438B60A168B94205
:100F900010D001290ED016E04FF4604CA3699CFAE2
:100FA000ACFCBCFA8CFC5B1E03FA0CF30B4343F461
:100FB0000061DAE74FF47001256991FAA1F1B1FA05
:100FC00081F16D1E8D402168CB6A23F470032B43A1
:100FD000CB62216889680D4B1940914208D1E662C5
:100FE000A16A21F0020141F00101A162BDE8F08196
:100FF000A06A20F0020040F01000A062E06A40F019
:101000000100E0620120F1E7FDF7E1FFFE0E1FFFA6
:101010007047000030B5054600681B4985B088421E
:101020002FD11A48816941F4007181618069694654
:1010300000F400700490FF200090032001901448F9
:1010400000F038FA144C13488021206000206060C2
:10105000C4E9020149002161890061612021C4E9DC
:101060000610204600F0C6F908B1FFF7F5FD2C6226
:10107000002211461220656200F088FB122000F069
:1010800079FB05B030BD0000002401400010024093
:101090000008014008000240AC0500202DE9F0479F
:1010A000894604463B4900683B4F0E1D90468842E6
:1010B00001D0B84207D1306810F4702F03D0012559
:1010C0002846BDE8F08794F8240001280CD00120C0
:1010D00084F824002046FFF77DFC05004FF0000156
:1010E00004D084F82410EBE70220EAE7A06A40F677
:1010F0000162904340F48070A0622068B84218D129
:10110000326812F4702F14D0A06A40F48010A062EC
:101110003068400505D5A06A20F4005040F48050A6
:10112000A062A06AC0040AD5E06A20F00600E0626E
:1011300006E0A26A22F48012A2624068E9E7E16256
:1011400084F82410216A15488862216A1448C8620C
:10115000216A1448086321686FF002000860206863
:10116000816841F480718160216843464A464C3170
:10117000206A00F067F920688168C1F342410729BD
:10118000816803D041F48011816099E741F4A001A6
:10119000FAE700000024014000280140630900082C
:1011A000CB090008B10900082DE9F05FDFF84082A3
:1011B0000446D8F800C0DFF838B28D4D8C4E8C4F05
:1011C00000684FF40061DFF82892DFF824A20BF1E9
:1011D000080B0B011C35303644374FF4002E09F153
:1011E00058090AF16C0A584501D1082216E0A842B4
:1011F00001D1802212E0B04201D10A460EE0B8428D
:1012000001D11A460AE0484501D1724606E0504530
:1012100002D14FF4000201E04FF000621CEA020F1D
:1012200031D00268D24312072DD4026822F008029E
:1012300002602068584501D1082114E0A84201D17C
:10124000802110E0B0420ED0B84201D119460AE028
:10125000484501D1714606E0504502D14FF40001E6
:1012600001E04FF00061C8F80410606B40F001002D
:101270006063042084F82100002084F82000216BA2
:1012800009B1204688475A48D0F800804FF4806161
:1012900020680B014FF4802E4FF0806C584501D12F
:1012A000042215E0A84201D1402211E0B04201D150
:1012B0000A460DE0B84201D11A4609E0484501D17D
:1012C000724605E0504502D14FF4800200E06246CC
:1012D00018EA020F2CD00268D243520728D40268C1
:1012E000920603D4026822F0040202602068584586
:1012F00001D1042113E0A84201D140210FE0B04206
:101300000DD0B84201D1194609E0484501D17146D6
:1013100005E0504502D14FF4800100E061463448B9
:101320004160112084F82100E16A09B12046884714
:101330002F4BD3F80080DC46206859154FF4005B32
:101340004FF4003E604501D1022216E0A84201D1CF
:10135000202212E0B04201D10A460EE0B84201D18B
:101360005A460AE0484501D1724606E0504502D18E
:101370004FF4001201E04FF0007218EA020F34D06F
:101380000268D243920730D40268920603D40268FE
:1013900022F0020202602068604501D1022114E0BF
:1013A000A84201D1202110E0B0420ED0B84201D1B4
:1013B00059460AE0484501D1714606E0504502D140
:1013C0004FF4001101E04FF000715960606B6063F1
:1013D000012084F82100002084F82000A16A00295F
:1013E00003D02046BDE8F05F0847BDE8F09F00004D
:1013F0000000024070B520B190F82110002411B116
:1014000003E0012070BD80F82040022180F8211007
:1014100001680A6843F6F0739A43D0E901352B431B
:10142000D0E9035635432B4345692B4385692B434C
:10143000C5692B4313430B604463012180F82110DD
:10144000002070BD70B5044690F82000012823D01C
:10145000012084F82000022084F82100206805681B
:1014600025F0010505602046FFF7E6FB20680168CE
:1014700041F0020101602068016841F0040101604F
:101480002068016841F0080101602068016841F0AE
:1014900001010160002070BD022070BD31B500F077
:1014A000F7F8044600F0F4F80099001B8842F9D3DD
:1014B00038BD00002DE9F84FDFF8A091002309F1B5
:1014C000040A0AF1040B1C464FF00F080BF1040E3E
:1014D00001270A68A7403A40BA4272D1DFF880C1BA
:1014E0004D68A5EB0C0665452BD00DDC032D34D0E3
:1014F00005DC35B3012D19D0022D2FD11BE0112DA4
:1015000016D0122D2AD119E0B6F5881F19D006DCA5
:10151000B6F5803F15D0B6F5801F1FD111E0B6F5A6
:10152000001F0ED0B6F5041F18D10AE0CB6815E0F5
:10153000CB681B1D12E0CB6808330FE0CB680C337F
:101540000CE08B682BB1012B4FF0080303D04761EF
:1015500004E0042302E0076100E00023FF2A01D831
:10156000064601E000F104064FEA840501D9A5F121
:101570002005376808FA05FC27EA0C0703FA05F589
:1015800047EA050737604D68ED0060D5354DAE6917
:1015900046F00106AE61AD6924F0030605F00105D1
:1015A0000095314D7719BE68A5072D0F08FA05FC87
:1015B00026EA0C06DFF8B4C0604503D14FF0000CFA
:1015C00017E044E0DFF8A8C0604502D14FF0010CFD
:1015D0000FE0DFF8A0C0604502D14FF0020C08E038
:1015E000DFF894C0604502D14FF0030C01E04FF0EA
:1015F000040C0CFA05FC4CEA060CC7F808C04D6850
:10160000D9F80060ED034D4601D5164300E096433E
:101610002E604D68DAF80060AD03554601D51643DB
:1016200000E096432E604D68DBF80060ED025D46F9
:1016300001D5164300E096432E604D68DEF8006049
:10164000AD02754601D5164300E096432E60641C3A
:10165000102CFFF43DAFBDE8F88F000000040140FE
:10166000000011100010024000000140000801407D
:10167000000C01400010014000140140C2684A40C3
:10168000C26070470AB1016170470904FBE70000BE
:10169000014800687047000000000020024801680F
:1016A000491C01607047000000000020074810B589
:1016B000016841F010010160032000F087F800206C
:1016C00000F006F800F016F8002010BD00200240DF
:1016D00010B5044600F0C6FC4FF47A71B0FBF1F08F
:1016E00001F036F900222146501E00F04FF800208C
:1016F00010BD00001D4808B5816941F001018161FC
:10170000806900F001000090032000F05FF80022E3
:1017100011466FF00B0000F039F8002211466FF00F
:101720000A0000F033F8002211466FF0090000F0C3
:101730002DF800221146501F00F028F80022114613
:10174000101F00F023F800221146901E00F01EF832
:1017500000221146501E00F019F80548416821F09A
:10176000E06141F00071416008BD000000100240DE
:101770000000014000F01F0201219140400980005B
:1017800000F1E020C0F8001170470000F0B40E4BEB
:101790001B68C3F30223C3F10704042C00D90424FB
:1017A0001D1D072D01D2002300E0DB1E012606FAD5
:1017B00004F56D1E0D409D409E40761E164045EA84
:1017C0000601F0BC01F0CEBC0CED00E0064A00F0D2
:1017D000070110684FF6FF03184040EA0120034953
:1017E00008431060704700000CED00E00000FA05AF
:1017F00010B50C0605D501F07F0100EB4110283033
:1018000003E000EB411000F5027099B232B1012201
:101810008272C180190C0181002010BD00228272E9
:101820008180F9E7704700EB4112D0F81C04D26BBD
:1018300002F0CDBB00EB4112D0F81C04D2F81C2200
:1018400002F01ABC10B504460A460B0601F07F00F0
:1018500004EB401101D5283101E001F50271087057
:10186000D009487094F8E803012809D0012084F8D1
:10187000E803206802F0E3FF002084F8E80310BDCD
:10188000022010BD70B50A460446090602F07F002A
:1018900003D504EB4011283103E004EB421101F5BC
:1018A000027100258D700870D009487094F8E80323
:1018B000012809D0012084F8E803206803F05DF8CE
:1018C00084F8E853002070BD022070BD70B5044656
:1018D0000D460E0601F07F0004EB401101D52831C2
:1018E00001E001F502710870E80948700A61CB70E7
:1018F00094F8E803012809D0012084F8E80320685F
:1019000002F072FE002084F8E80370BD022070BD72
:1019100070B504460E4601F07F0004EB401101F55E
:10192000077100252CC101F81F5C01F8200D94F807
:10193000E80301280AD0012084F8E8037006206833
:1019400003F075F884F8E853002070BD022070BDE4
:1019500070B50D460446090605F07F0003D504EB7B
:101960004011283103E004EB451101F50271012219
:101970008A700870E809487094F8E803012807D0D5
:1019800084F8E823206803F02DF8680602D006E00A
:10199000022070BD04F57B71206802F0ECFF00208E
:1019A00084F8E80370BD70B504460E4601F07F0070
:1019B00004EB40113C3100252CC1012201F81F2C01
:1019C00001F8200D94F8E803012809D084F8E823F1
:1019D0007006206803F02BF884F8E853002070BDEF
:1019E000022070BD10B50446006803F001F9000440
:1019F00002D5204601F0C6FB206803F0F9F8400547
:101A00000CD5206830F8441F21F480610180204605
:101A100000F0F2F80021204600F003F9206803F0FE
:101A2000E7F8400405D5206830F8441F21F48041D0
:101A30000180206803F0DCF8800405D5206830F8C8
:101A4000441F21F400510180206803F0D1F8C00444
:101A500013D5206830F8401F21F00401018021686F
:101A60004FF43D40A1F84000204600F0D2F8206835
:101A700030F8441F21F480510180206803F0B8F849
:101A800000051AD5206830F8441F21F40061018058
:101A9000206830F8401F41F008010180206830F8CC
:101AA000401F41F004010180206803F0A1F8C04309
:101AB000C00402D5204600F0E9F8206803F098F849
:101AC000800508D5206830F8441F21F4007101809A
:101AD000204600F0A2F8206803F08AF8C00505D57A
:101AE000206830F8441F21F48071018010BD2DE979
:101AF000F04186B004004FF0000504D094F8E903EB
:101B0000002620B108E0012006B0BDE8F08184F88D
:101B1000E863204600F04AF8032084F8E9032068CF
:101B200002F022FF04F11001142288466846FEF7F5
:101B300009FB94E80F0002F080FE0021206803F00A
:101B400068F8012704EB451080F8297000F8285F39
:101B50008581C670066146616D1C86610F2DF1D3CB
:101B6000002104EB411080F8096280F80812818698
:101B700080F80B62C0F81862C0F81C62491CC0F8FB
:101B800020620F29EDD3142241466846FEF7DAFAA7
:101B900094E80F0002F0DFFE84F8246084F8E97313
:101BA000206802F0D6FE0020AEE7000008B500680D
:101BB0000F4988421AD10F48C16941F40001C1613F
:101BC000C069002200F40000009011461320FFF7C6
:101BD000DDFD1320FFF7CEFD002211461420FFF794
:101BE000D5FDBDE808401420FFF7C4BD08BD0000C6
:101BF000005C00400010024010B504460121D0F8FE
:101C00001C0402F00BFBD4F81C04BDE8104002F0E9
:101C1000D4BAD0F81C0402F0EFBAD0F81C0402F0D9
:101C2000F1BA10B5044690F8E80301280BD0012062
:101C300084F8E80384F82410206802F0ECFF002008
:101C400084F8E80310BD022010BDD0F81C2400F574
:101C50007B71104602F0F5BA10B5044690F8E8031F
:101C6000012810D0012084F8E80301462046FFF740
:101C7000D9FD206802F06BFE206802F0ABFF002067
:101C800084F8E80310BD022010BD000010B5044622
:101C9000D0F81C0402F022FBA069002804D00348FD
:101CA000016841F00601016010BD000010ED00E088
:101CB0000120010291FAA1F1024AB1FA81F142F840
:101CC0002100704700000E4210B5014632A086B0D8
:101CD0001DC88DE81D0034A0344C0068049000201D
:101CE000012930D0022947D010292AD16168226801
:101CF000D20126D54FF4701292FAA2F201F47010BC
:101D0000B2FA82F2D040C9031DF8000010D5616814
:101D10004FF4003292FAA2F201F40031B2FA82F2E8
:101D2000D14004AA515C224AB2FBF1F1484301E0E0
:101D3000204948436168490203D440000321B0FBB5
:101D4000F1F006B010BD216AC1F30122012A03D1CE
:101D5000890701D5D003F4E7022A05D1616A890712
:101D600002D549F64040ECE7032AEAD1216889030D
:101D7000E7D54FF22440E4E700F07AF961684FF4C8
:101D8000804292FAA2F201F44041B2FA82F2D140CA
:101D9000491C4900D3E700000203040506070809AF
:101DA0000A0B0C0D0E0F1010010200000010024073
:101DB00000127A0000093D002DE9F843044600783E
:101DC000454EC00773D0F06940F08050F061F06973
:101DD000424F00F080500090386840F480703860C6
:101DE000FFF756FC054604E0FFF752FC401B642851
:101DF00032D83868C005F7D5306A10F4407050D03A
:101E0000A18801F4407181424BD0306A01273B0424
:101E100093FAA3F1B1FA81F18A00314920F44070BC
:101E20000A44C2F8007493FAA3F3B3FA83F301EB04
:101E300083010022C1F800243062C00731D0FFF7CF
:101E400027FC054641F288394FF0020807E0FFF70A
:101E50001FFC411B494502D90320BDE8F88398FACD
:101E6000A8F0B0FA80F040F040004146B7EB501FB8
:101E700001D130680BE091FAA1F0B0FA80F040F0A7
:101E80004000B1EB501F01D1306A00E0706A98FA4F
:101E9000A8F1B1FA81F101F01F0207FA02F108423C
:101EA000D5D0306A616820F44070084330622078F1
:101EB000800705D57068A16820F440400843706031
:101EC0002078C00605D57068E16820F480000843DA
:101ED00070600020C1E70000001002400070004068
:101EE000000042422DE9F047DFF8688104460E46C3
:101EF000D8F8000000F00700B0420CD2D8F800106B
:101F000021F007013143C8F80010D8F8000000F0B4
:101F10000700B04273D120784F4F800705D578680D
:101F2000A16820F0F000084378602078C00755D001
:101F30006068012201280CD0022828D0022393FADD
:101F4000A3F1B1FA81F141F02001490904D03968C7
:101F500003E04FF40033F2E7796A93FAA3F3B3FA9C
:101F600083F303F01F039A40114248D0796821F0AF
:101F7000030101437960FFF78BFB0546606841F27E
:101F8000883101280CD00228894615D022E04FF074
:101F90000073D4E7FFF77CFB411B494501D916E0EC
:101FA00089467868C0F381000128F3D116E0FFF775
:101FB0006FFB411B49450AD87868C0F381000228AD
:101FC000F5D10BE0FFF764FB411B494502D9032023
:101FD000BDE8F087786810F00C0FF3D1D8F8001046
:101FE000404601F00701B1420BD9016821F0070119
:101FF00031430160006800F00700B04201D00120C9
:10200000E6E72078400705D57868E16820F4E060CD
:10201000084378602078000706D57868216920F4A5
:10202000605040EAC100786000F03AF87968F02228
:1020300092FAA2F201F0F001B2FA82F2D140074A1C
:10204000515CC840064908600020FFF741FB0020B2
:10205000BEE70000002002400010024018540008B3
:102060000C01002001480068704700000C010020AE
:1020700008480949006849684FF4605292FAA2F290
:1020800001F46051B2FA82F2D140044A515CC84076
:10209000704700000C010020001002402854000886
:1020A00010B519A085B00FC88DE80F001AA01B4B02
:1020B0000068049059681A4801F00C02042A1DD0E7
:1020C000082A1BD14FF4701494FAA4F401F470128E
:1020D000B4FA84F4E240C9031DF8022010D559680F
:1020E0004FF4003393FAA3F301F40031B3FA83F30E
:1020F000D94004AB595CB0FBF1F0504305B010BDC2
:1021000008485043FAE700000203040506070809DF
:102110000A0B0C0D0E0F10100102000000100240FF
:1021200000127A0000093D002DE9F84F04460078BE
:10213000FE4EC0074FF001057FD070684FF40038A5
:10214000C0F38100012807D07068C0F38100022825
:102150001BD17068C00318D598FAA8F0B0FA80F0C7
:1021600040F02000400901D0306800E0706A98FA21
:10217000A8F1B1FA81F101F01F0105FA01F108425D
:102180005BD06068002879D057E06068B0F5803F88
:102190000BD010B1B0F5A02F11D0306820F48030F2
:1021A0003060306820F4802002E0306840F48030F5
:1021B0003060606818B3FFF76BFA074609E03068D3
:1021C00040F480203060F0E7FFF762FAC01B64281B
:1021D00070D898FAA8F0B0FA80F040F020004009DA
:1021E00001D0306800E0706A98FAA8F1B1FA81F184
:1021F00001F01F0105FA01F10842E5D01DE0FFF7EB
:1022000047FA074604E0FFF743FAC01B6428DFD80B
:1022100098FAA8F0B0FA80F040F02000400901D010
:10222000306800E0706A98FAA8F1B1FA81F101F023
:102230001F0105FA01F10842E5D12078DFF8F082AC
:1022400080074FF0000A4FF002075AD570684FF030
:10225000F80B10F00C0F07D07068C0F38100022853
:102260001CD17068C00319D497FAA7F0B0FA80F0B7
:1022700040F02000400902D0306801E08AE0706A36
:1022800097FAA7F1B1FA81F101F01F0105FA01F106
:1022900008422BD0206901287CD127E0206988B32F
:1022A00095FAA5F0B0FA80F048F82050FFF7F0F961
:1022B000814606E04DE1FFF7EBF9A0EB09000228AB
:1022C00086D897FAA7F0B0FA80F040F020004009D5
:1022D00001D0306800E0706A97FAA7F1B1FA81F195
:1022E00001F01F0105FA01F10842E4D030689BFAC1
:1022F000ABF220F0F8016069B2FA82F2904001433B
:10230000316025E0FFE795FAA5F1B1FA81F148F8CF
:1023100021A0FFF7BDF9814605E0FFF7B9F9A0EB71
:1023200009000228CCD897FAA7F0B0FA80F040F064
:102330002000400901D0306800E0706A97FAA7F1E8
:10234000B1FA81F101F01F0105FA01F10842E4D16F
:10235000207800076DD5A069B8B395FAA5F0B0FA5A
:1023600080F008EB8000C0F88054FFF791F98146B7
:1023700005E0FFF78DF9A0EB09000228A0D897FA35
:10238000A7F0B0FA80F040F06000B5EB501F02D12A
:1023900030680CE063E197FAA7F0B0FA80F040F003
:1023A0006000B7EB501F01D1306A00E0706A97FA05
:1023B000A7F1B1FA81F101F01F0105FA01F2104213
:1023C000D7D00120FFF76AF833E0FFE795FAA5F1CF
:1023D000B1FA81F108EB8101C1F880A4FFF758F947
:1023E000814605E0FFF754F9A0EB0900022899D8CF
:1023F00097FAA7F0B0FA80F040F06000B5EB501FFC
:1024000001D130680BE097FAA7F0B0FA80F040F005
:102410006000B7EB501F01D1306A00E0706A97FA94
:10242000A7F1B1FA81F101F01F0105FA01F21042A2
:10243000D8D12078400763D5F06940F08050F06132
:10244000F069DFF8F0B000F080500090DBF8001089
:1024500041F48071CBF80010FFF71AF9814605E0CE
:10246000FFF716F9A0EB0900642872D8DBF800002A
:10247000C005F5D5E06801280AD008B1052813D0B9
:10248000306A20F001003062306A20F0040002E07F
:10249000306A40F001003062E06841F2883B80B36E
:1024A000FFF7F6F881460AE0306A40F00400306237
:1024B000EEE7FFF7EDF8A0EB0901594549D897FA87
:1024C000A7F0B0FA80F040F04000B5EB501F01D10A
:1024D00030680BE097FAA7F0B0FA80F040F04000C7
:1024E000B7EB501F01D1306A00E0706A97FAA7F18C
:1024F000B1FA81F101F01F0205FA02F10842D8D0C9
:1025000033E0FFE7FFF7C4F8814605E0FFF7C0F8C6
:10251000A0EB090159451CD897FAA7F0B0FA80F052
:1025200040F04000B5EB501F08D105E0001002401C
:10253000000042420070004030680CE097FAA7F0BB
:10254000B0FA80F040F04000B7EB501F02D1306A83
:1025500001E08AE0706A97FAA7F1B1FA81F101F01F
:102560001F0205FA02F10842D0D1E06998B3716800
:10257000C1F38101022972D002284FF080714FF01F
:10258000007B50460AD091FAA1F1B1FA81F148F8E6
:102590002100FFF77DF804465F4669E08A4691FA1C
:1025A000A1F1B1FA81F1C14648F82100FFF770F8B6
:1025B000A84607465D4604E0FFF76AF8C01B0228FC
:1025C00053D895FAA5F0B0FA80F040F02000400909
:1025D00002D0306801E060E0706A95FAA5F1B1FAC6
:1025E00081F101F01F0208FA02F10842E4D1206AE9
:1025F000B0F5803F05D17068A16820F40030084331
:102600007060D4E908010843716821F4741108432B
:1026100070609AFAAAF0B0FA80F0474649F8208034
:10262000FFF736F8044604E0FFF732F8001B0228F3
:102630001BD895FAA5F0B0FA80F040F020004009D0
:1026400001D0306800E0706A95FAA5F1B1FA81F125
:1026500001F01F0107FA01F10842E5D01DE01EE07C
:10266000FFF716F8001B022802D90320BDE8F88FF7
:1026700097FAA7F0B0FA80F040F02000400901D0AE
:10268000306800E0706A97FAA7F1B1FA81F101F0C1
:102690001F0105FA01F10842E2D10020E6E701201E
:1026A000E4E7000070B5040003D0607C002610B1A0
:1026B00005E0012070BD2674204600F043F802209A
:1026C0006074204600F01AF9042578BB204600F01B
:1026D00007FF58BB2068416821F007014160A068EE
:1026E00020B11748016821F0010101601448001F62
:1026F0000168A26821F46071114301606068411CA7
:1027000004D10120FFF7E0FA80B1401E21688A68F9
:1027100022F00F0242EA10428A602168CA6860F320
:102720000F02CA60204600F0F5FE08B16574C0E7EC
:10273000E67301206073A0736074002070BD000018
:10274000306C004008B500680C49884215D1FFF78D
:10275000AFFA0B48C16941F00061C161C069094A23
:1027600000F0006000900120C10391FAA1F1B1FADC
:1027700081F102EB8101C1F8000408BD002800408E
:1027800000100240000042422DE9F0410D460400D5
:102790003BD0C5B3207C01283AD04FF0010884F823
:1027A000108002206074E87872B300F090FEE0734D
:1027B000687800F08CFE6073A87800F088FEA07343
:1027C000C2B2617BE07B00F0D6FE20732870204609
:1027D00000F0C1FE4FF46161B0FBF1F10025182952
:1027E0002DD91822B1FBF2F1A1EB011101EB41014E
:1027F000C1EB011100EBC1163146204600F0FAFE94
:102800000427C8B90BE000E004E00120BDE8F08136
:102810000220FBE7E07368786073A878CFE7204672
:1028200000F092FE411C0AD0B04208D20649014491
:10283000204600F0CBFE10B167742574E5E784F8FC
:10284000118025740020E1E7805101002DE9F0415D
:102850000D46040024D01DB3207C012823D04FF066
:10286000010884F8108002206074F2B1287800F02A
:102870002EFE4FF4616100FB01F6687800F027FE40
:10288000C0EB001006EB8006A87800F020FE35189B
:102890002946204600F0AEFE0026042718BB10E0B3
:1028A0000120BDE8F0810220FBE729784FF4616048
:1028B00041436878C0EB001001EB8000A97845180F
:1028C000E6E72068416821F005014160204600F0FC
:1028D0003BFE411C0AD0A84208D2074901442046C9
:1028E00000F074FE10B167742674D9E784F8118083
:1028F00026740020D5E700008051010070B5040067
:102900000AD02068416821F008014160FEF7C0FE4E
:1029100005464FF47A7608E0012070BDFEF7B8FE58
:10292000401BB04201D9032070BD206840680007F9
:10293000F4D5002070BD4FF0E0210428086903D0D1
:1029400020F004000861704740F00400FAE7704787
:1029500010B5401EB0F1807F01D3012010BD4FF0B3
:10296000E02460610F21601700F0FCFB0020A061F3
:1029700007202061002010BD10B5FFF7E8FF10BD53
:102980007047704730B590F83820012A20D00123D5
:1029900080F83830022280F839200268546824F028
:1029A00070045460026854680D682C4354600268D7
:1029B000946824F0800494600268946849680C4329
:1029C000946080F83930002180F83810084630BD16
:1029D000022030BD10B5040003D094F8390010B1C6
:1029E00007E0012010BD002084F83800204600F0E8
:1029F0000DF8022084F83900211D206800F052FFF4
:102A0000012084F83900002010BD000008B50068DE
:102A10001049B0F1804F0BD00F4A904207D1C869DE
:102A200040F00400C861C86900F00400009008BDCF
:102A3000C86940F00100C861C869002200F00100C7
:102A4000009011461C20FEF7A1FEBDE808401C20A6
:102A5000FEF790BE00100240000800400168CA68FE
:102A600042F00102CA600068016841F001010160A2
:102A70000020704770B5044690F83800012817D040
:102A8000012584F83850022084F8390020688268D3
:102A900022F0770222F47F4282600868502836D004
:102AA0000DDC202858D005DC80B3102840D150E040
:102AB000022070BD302852D0402839D13EE0602835
:102AC0002DD070280BD0B0F5805F03D0B0F5005F3B
:102AD0002ED110E02068816821F0070109E0CB6861
:102AE000D1E90121206800F00FFF2068816841F0E2
:102AF000770181601CE0CB68D1E90121206800F0FA
:102B000003FF2068816841F48041F2E71EE0CA6853
:102B10004968206800F0B2FF5021206806E0CA68CA
:102B20004968206800F0BBFF6021206800F0F6FED5
:102B300084F83950002084F8380070BDCA684968AC
:102B4000206800F09BFF40212068EFE7002120680B
:102B5000ECE710212068E9E720212068E6E7302132
:102B60002068E3E7704770B50446006801694FF0DC
:102B70000005C943890715D4C168C943890711D421
:102B8000E91E0161012020762068806980072046C7
:102B900002D0FFF7E7FF04E000F0ACF8204600F0B9
:102BA0002EF9257620680169C943490717D4C16801
:102BB000C943490713D46FF0040101610220207654
:102BC0002068806910F4407F204602D0FFF7CAFFDA
:102BD00004E000F08FF8204600F011F92576206817
:102BE0000169C943090716D4C168C943090712D44A
:102BF0006FF008010161042020762068C069800719
:102C0000204602D0FFF7AEFF04E000F073F8204644
:102C100000F0F5F8257620680169C943C90617D484
:102C2000C168C943C90613D46FF0100101610820BF
:102C300020762068C06910F4407F204602D0FFF75C
:102C400091FF04E000F056F8204600F0D8F8257611
:102C500020680169C943C90708D1C168C943C907C8
:102C600004D1891E0161204600F0CAF8206801697C
:102C7000C943090609D4C168C943090605D46FF0E0
:102C8000800101612046FFF77BFE20680169C9438E
:102C9000490609D4C168C943490605D46FF040010B
:102CA0000161204600F002F920680169C9438906E4
:102CB0000BD4C168C943890607D46FF020010161B4
:102CC0002046BDE87040FFF75CBE70BD1FB50068D0
:102CD0000649884209D14FF470700090022001909B
:102CE000039069460248FEF7E5FB1FBD000800405F
:102CF000000C0140704770B5044690F838000D464E
:102D000001280DD0012684F83860022084F83900AB
:102D100042B1042A18D0082A2AD00C2A4DD139E011
:102D2000022070BD206800F001FE2068816941F03A
:102D3000080181612068816921F0040181612068B6
:102D400081692A69114311E0206800F01BFE2068A8
:102D5000816941F4006181612068816921F48061A9
:102D60008161206881692A6941EA0221816124E048
:102D7000206800F035FE2068C16941F00801C1619A
:102D80002068C16921F00401C1612068C1692A6914
:102D9000114311E0206800F04FFE2068C16941F442
:102DA0000061C1612068C16921F48061C16120684E
:102DB000C1692A6941EA0221C16184F839600020B1
:102DC00084F8380070BD10B5040003D094F83900C1
:102DD00010B107E0012010BD002084F83800204623
:102DE00000F00CF8022084F83900211D206800F062
:102DF00059FD012084F83900002010BD704770474C
:102E000070B5274DE878002824D1A878254E78B1F0
:102E1000E86800281CDDE868401EE86068894FF417
:102E20000051401E68812048FEF728FC002412E073
:102E3000002406EB0410002281880068FEF722FCC3
:102E4000641C092CF5DBE868002803DD012000E0A4
:102E50000020A87070BD06EB0410817919B101291A
:102E600014D1698991B9D0E9021211448160B1F598
:102E7000000F06D3A1F5000181608188006801225E
:102E800002E0818800680022FEF7FCFB641C092C2C
:102E9000E1DB68890028DDD140F21D10688170BD3A
:102EA0003000002094020020001001407047FEE72F
:102EB000FEB530482E49002401608915C0E902148E
:102EC0004461082505614FF460214460C161FEF74B
:102ED00005F800B1FEE70126CDE900460324694666
:102EE00024480294FDF7BAFE00B1FEE700960226E0
:102EF000694620480196FDF7B1FE00B1FEE7CDE935
:102F0000006469461B48FDF7A9FE00B1FEE7009486
:102F10000424694617480194FDF7A0FE00B1FEE7BE
:102F200000940524694613480194FDF797FE00B10B
:102F3000FEE70620CDE9004069460E48FDF78EFE0B
:102F400000B1FEE710200090072001906946094873
:102F5000FDF784FE00B1FEE71120CDE900056946CA
:102F60000448FDF77BFE002800D0FEE7FEBD000010
:102F700000240140140100202DE9F041274886B0CB
:102F8000816941F010018161816901F010010491B2
:102F9000816941F020018161816901F02001049182
:102FA000816941F004018161816901F004010491AA
:102FB000816941F0080181618069194E00F00800C3
:102FC0004FF400540490002221463046FEF75AFB8D
:102FD000DFF850804FF60745002229464046FEF7AD
:102FE00051FB0127CDE9004702246946304603948E
:102FF000FEF760FACDE90057694640460394FEF7B4
:1030000059FA202000900020019002906946404625
:10301000FEF750FA06B0BDE8F08100000010024053
:1030200000100140000C01407CB5164814490025F1
:1030300001604FF0FF31C0E90115FFF733FB00B12C
:10304000FEE701248DF804408DF805508DF80650F8
:10305000224601A90B48FFF7F9FB00B1FEE78DF806
:1030600000408DF801408DF802408DF80350012298
:1030700069460448FFF788FB002800D0FEE77CBDC6
:10308000002800404401002010B526488EB0244995
:103090000024C0E9001441F61F41C0E90241046167
:1030A000FFF798FC00B1FEE74FF48050079007A9A6
:1030B0001C48FFF7DFFC00B1FEE71A48FFF783FE6C
:1030C00000B1FEE70B940BA916480C94FFF75AFCCD
:1030D00000B1FEE76020CDE90004029400226946B9
:1030E00010480494FFF707FE00B1FEE7042269468A
:1030F0000C48FFF700FE00B1FEE7082269460948C8
:10310000FFF7F9FD00B1FEE70C2269460548FFF71D
:10311000F2FD00B1FEE70348FFF7D8FD0EB010BD89
:10312000000800409401002010B500220849094819
:1031300000F018FF0849074801F0FDF80749054865
:1031400000F034FDBDE81040024801F041B9000034
:1031500040000020E4050020740000202000002032
:10316000FEE770470907090E002806DA00F00F0095
:1031700000F1E02080F8141D704700F1E02080F895
:10318000001470472DE9FC5F04460020ADF80000F4
:10319000ADF8040040F68F7B4FF006094FF0020AAD
:1031A0004FF4806884E1BDF8001011F00F0628D0BC
:1031B00030F82610ADF80410BDF80410090475D5D8
:1031C00030F8261001EA0B0120F8261004EB461512
:1031D00095F8120205F502750028206867D0297855
:1031E00030F82120B0F8503052047CD50AEBC101F0
:1031F0005A1808EB4201415A8F05BF0D74D0EA8876
:10320000C7E0BDF80010C9062CD4018848F60F723B
:1032100011400180206804F12805B0F850202B7877
:103220000AEBC3010A4408EB4201405AC0F309000B
:103230006064E16B0844E06300212046FEF7F3FA86
:1032400094F824000028ADD0A8690028AAD194F8E9
:103250002400216840F08000A1F84C00002084F890
:10326000240025E1018804F50275ADF80410BDF8CD
:10327000041009051CD5B0F850202B7809EBC301C8
:103280000A4408EB4201405A04F57B71C0F309037C
:10329000EB61AA88206801F0AEFC2068018801EA91
:1032A0000B0101802046FEF7D0FC01E195E054E0DF
:1032B000BDF804100904D4D5018801EA0B0101808E
:1032C0002068B0F850202B78464609EBC301114422
:1032D00008EB4101405A83059B0DEB610BD0AA8896
:1032E0006969206801E04AE057E001F084FCE9697F
:1032F00068690844686100212046FEF79BFA20684F
:10330000B0F85010891D06EB4101421828693E288B
:103310000CD9C0F34F11C00601D1491E89B24FF636
:10332000FF7000EA812040F4004009E0C0F34F0143
:10333000C00701D0491C89B24FF6FF7000EA812016
:103340001060206801884BF68F72114081F4405163
:1033500048F2800211430180AAE0B0F850202B7897
:1033600009EBC3010A4408EB4201415A8F05BF0D26
:103370001FD0AA883B46696901F03DFC19E009EBC2
:10338000C1015A1808EB4201415A8F05BF0D04D004
:103390002A893B46696901F02EFC2978206830F8BB
:1033A000212048F68F731A4048F2C0031A4320F8D0
:1033B0002120E8693844E8616869C2196A61AB692B
:1033C00013B12869B84204D929782046FEF732FAA9
:1033D00003E029782046FEF79BFABDF804000006BA
:1033E00066D5206804EB461530F8261048F60F72B3
:1033F000114020F8261095F8320028350028206862
:1034000012D0297830F82120B0F8503052061ED55D
:103410000AEBC1015A1808EB4201405A83059B0D83
:10342000EB6123D0EA881DE0B0F850202B780AEB3E
:10343000C3010A4408EB4201405A83059B0DEB612E
:1034400020D0AA886969206801F0EBFB1AE009EB3B
:10345000C1015A1808EB4201405A83059B0DEB61EC
:1034600004D02A896969206801F0DBFB297820688B
:1034700030F8212048F68F731A404CF280031A432B
:1034800020F821202068B0F850202B780AEBC301E7
:103490000A4408EB4201405AC0F30900E861696937
:1034A0000A186A612978AB69204663B1FEF77BFA96
:1034B0002068B0F84410ADF8001009043FF573AE71
:1034C0000020BDE8FC9FFEF7AEF9F1E77047010967
:1034D00001EB810100F00F0000EB4100C0B270472A
:1034E00070B50546FEF7D4F804464FF47A7606E048
:1034F000FEF7CEF8001BB04201D9032070BD28684A
:1035000040688006F4D52868416841F010014160A8
:10351000002070BD70B505460068416821F01001BB
:103520004160FEF7B5F804464FF47A7606E0FEF700
:10353000AFF8001BB04201D9032070BD2868406875
:103540008006F4D5002070BD0068016A406A80B230
:1035500040EA01407047006881698AB2C1698BB254
:10356000816989B28A4203D0C06961F31F40704704
:1035700043EA02407047F0B56426C1EBC103092558
:10358000B700072403EB01130329B3FBF5F100F5A2
:10359000FA60114401440AD2401EB0FBF6F201EB7E
:1035A0009001B0FBF7F0891A0844001D08E0B0FB59
:1035B000F6F201EB9001B0FBF7F0891A0844801C89
:1035C000B0FBF4F104FB1100C0B2F0BD70B50D46C4
:1035D00006460024FFF784FF48B93168280C0862CA
:1035E0003168A8B248623046FFF794FF00B1012469
:1035F000204670BD70B50D4606460024FFF770FFEB
:1036000048B93168280C88613168A8B2C861304671
:10361000FFF780FF00B10124204670BD704710B550
:10362000FEF73CF8FFF7A8F9BDE81040AFF30080C3
:103630002DE9FC5F5F480025C178002976D08046DF
:103640004079DFF8749100EB400209EB0214AA46BE
:10365000C4F820A094F91860A9F5AA7B062E0BD215
:1036600006EBC60109F5D87000EB810090F8201038
:10367000002969D0C06915E0B01F022814D20027C4
:103680003D460BEB051030F81600FCF753FE3946AB
:10369000FCF77CFD6D1C0746082DF2DB6FF0020184
:1036A000FCF73CFE206201E0002E4DDAD4E9075120
:1036B00046464F462846FCF7BBFD00902846E16889
:1036C000FCF7BCFD0190E16A0098FCF7B1FD3B49B5
:1036D000FCF7B4FDA168FCF7B1FD05462168009830
:1036E000FCF7ACFDA16AFCF751FD2946FCF74EFD45
:1036F0000199FCF74BFD05460098E0622846616998
:10370000FCF76AFE707900EB400007EB001001D86F
:10371000456919E001692846FCF754FE707900EB11
:10372000400004D807EB001005690DE040E007EB0E
:10373000001400996068FCF781FD2149FCF77EFDCB
:10374000A16AFCF723FDA06298F80540464604EB09
:10375000440109EB0110172145622846FCF7DEFD04
:10376000FCF7EDFD72B61449903901EB0411C86005
:1037700062B6641CE0B27071092801D386F805A016
:10378000B079401CB071C043800711D13089401C12
:1037900080B23081082801D3A6F808A0318902B090
:1037A0000BEB0111BDE8F05F08220648FDF776BC7F
:1037B000BDE8FC9F3000002024030020E338DE42F7
:1037C000BD74133C1401002030B593B005204FF4B4
:1037D000803100248DE813000120039004904FF401
:1037E000E010CDE90810022507956846FEF79CFC1D
:1037F00000B1FEE70F20CDE90A054FF48060CDE966
:103800000C4002210AA80E94FEF76CFB00B1FEE703
:1038100013200F904FF480701090C001CDE9110477
:103820000FA8FEF7C9FA00B1FEE7FEF71BFC4FF444
:103830007A71B0FBF1F0FFF78BF80420FFF77BF80B
:1038400000221146501EFDF7A1FF13B030BD00004D
:103850000D48016841F00101016041680B4A1140C7
:10386000416001680A4A11400160016821F4802129
:103870000160416821F4FE0141604FF41F01816045
:103880000449C00308607047001002400000FFF8C0
:10389000FFFFF6FE08ED00E00148FFF764B9000005
:1038A00058010020F0B50268144C154D154E4FF02C
:1038B0008047A04205D0B84203D0A84201D0B04210
:1038C00003D122F070034A681A43A04205D0B842DF
:1038D00003D0A84201D0B04203D122F44073CA6899
:1038E0001A4302608A68C2620A688262A04201D1F9
:1038F0000969016301214161F0BD0000002C014014
:10390000000400400008004010B5846842EA032229
:1039100024F47F440A432243826010BD826822F06F
:1039200070020A4342F007018160704730B5026AB5
:1039300022F001020262036A4268846924F073057E
:103940000C682C4323F002058B682B430C4DA842D6
:1039500006D123F00805CB6843EA050323F00403EE
:1039600007D14D6922F4407245EA02058A6942EAAC
:1039700005024260846149684163036230BD000012
:10398000002C014030B5026A22F010020262026A85
:10399000436884690D6824F4E64444EA05248D688C
:1039A00022F0200242EA05120C4DA84206D1CD6851
:1039B00022F0800242EA051222F0400207D14D694E
:1039C00023F4406343EA85038D6943EA850343603A
:1039D000846149688163026230BD0000002C0140AF
:1039E00030B5026A22F480720262036A4268C469D6
:1039F00023F4007324F073050C682C438D6843EAAC
:103A000005230C4DA84206D1CD6823F4006343EA98
:103A1000052323F4806307D14D6922F4405242EA22
:103A200005128D6942EA05124260C4614968C163AA
:103A3000036230BD002C014030B5026A22F480528E
:103A40000262036A4268C4690D6824F4E64444EAE9
:103A500005248D6823F4005343EA0533064DA8423C
:103A600004D14D6922F4804242EA85124260C46169
:103A700049680164036230BD002C014010B5046A3E
:103A8000036A23F001030362836923F0F00343EA2E
:103A9000021324F00A020A438361026210BD10B5CA
:103AA000036A23F0100303628469036A24F47044F8
:103AB00044EA023223F0A00343EA01118261016269
:103AC00010BDD0F81802002180F850100846704749
:103AD00070B50546D0F81842D5F81C226178D26836
:103AE00020789047402322460121284600F055FBCC
:103AF000002070BD10B50446812100F058FA012164
:103B0000204600F054FAD4F8180250B1D4F81C0240
:103B100004F5067480688047206800F05FFD00208F
:103B20002060002010BD10B5D0F81842E16C0129CA
:103B300008D1D0F81C0223786178C26818469047F3
:103B40000020E064002010BD29210180004870475A
:103B5000B00000200A2101800048704700010020C9
:103B600070B50646002540230322812100F002FBA8
:103B7000402303220121304600F0FCFA542000F0DB
:103B80002FFDC6F8180278B10446002084F85000D2
:103B9000D6F81C0240688047402322460121304667
:103BA00000F0FBFA284670BD0125FBE70246022023
:103BB000002902D00020C2F81C12704710B513462D
:103BC00090F8FC41D0F81822032C09D192F850400B
:103BD00034B9012482F850400A46812100F087FB65
:103BE000002010BD70B500220D78D0F818321446B0
:103BF00015F0600526D0202D4CD14A78921E0A2A55
:103C00001CD2DFE802F010081B1B1B1B1B140C0549
:103C1000887818643EE0012203F1400131E04888D1
:103C2000000A586436E0012203F1440129E0012230
:103C3000DA648A79194600F053F82BE000F045F871
:103C4000022070BD4D78062D04D00A2D1CD00B2DFE
:103C500020D11DE04B882225B5EB132F07D1CA8850
:103C60001C2A00D91C22D0F81C120C6808E021255F
:103C7000B5EB132F04D1CA88074C212A00D9212281
:103C8000214600F047F805E0012203F14801F8E77A
:103C900088789864002070BDDC00002010B5D0F852
:103CA000142252689047002010BD134610B50A46F2
:103CB000002100F072FA002010BD134610B50A462C
:103CC000002100F014FB002010BD10B50446802137
:103CD00000F0E4FA2046BDE81040002100F0DEBA12
:103CE00010B50323C0F80821C0F8F431C0F80C2146
:103CF00013460A46002100F050FA002010BD10B50E
:103D000005210023C0F8F4111A46194600F045FABF
:103D1000002010BD10B502238261C0F8F431C261E9
:103D200013460A46002100F0E2FA002010BD10B54B
:103D300004210023C0F8F4111A46194600F0D7FAFE
:103D4000002010BD10B50A46024903A000F0E7F8B4
:103D5000004810BD800C0020437573746F6D2048BF
:103D6000494420436F6E6669670000001220088096
:103D7000004870476000002010B50A46024903A0C1
:103D800000F0CDF8004810BD800C0020437573741E
:103D90006F6D2048494420496E74657266616365A1
:103DA0000000000004200880004870475C000020EC
:103DB00010B50A46024903A000F0B1F8004810BD52
:103DC000800C0020446142697400000010B50A466E
:103DD000024903A000F0A3F8004810BD800C0020A9
:103DE0004461426974203344207072696E74657254
:103DF00020617578696C6961727920636F6E747285
:103E00006F6C6C657200000010B50A46024903A091
:103E100000F085F8004810BD800C002030303030B4
:103E2000303030303030314200000000F8B5044608
:103E300048880D46010A082954D2DFE801F05304EE
:103E4000091753534951D4F81012207C0A6819E01D
:103E5000207C02260028D4F8140205D0C16A6846E6
:103E60008847014646704AE0816AF8E7C1B20629F0
:103E700026D2DFE801F0030A0F14191ED4F810123D
:103E8000207C4A686946904718E0D4F81012207CDC
:103E90008A68F7E7D4F81012207CCA68F2E7D4F8F1
:103EA0001012207C0A69EDE7D4F81012207C4A69D0
:103EB000E8E7D4F81012207C8A69E3E701461EE0A7
:103EC000C1B2D4F814026A46836B20469847F5E7DE
:103ED000207C38B9D4F81402416B68468847EDE776
:103EE000207C20B129462046FFF7EFFEF8BDD4F82C
:103EF0001402016B68468847014607204870BDF8E8
:103F000000000028F2D0EA88002AEFD0824200D9CF
:103F10000246ADF800202046FFF7FCFEF8BD70B564
:103F2000002300281DD00446002502E06D1CEDB2E0
:103F3000641C2678002EF9D1022404EB4504148079
:103F4000CC545B1C0322CA5400245B1C06E0CA54F8
:103F50005B1CDAB28C54521CD3B2401C0278002A8B
:103F6000F5D170BD10B580B1D0F8143213B1002373
:103F7000C0F8143209B1C0F81012012180F8FC1108
:103F8000027000F0AFF8002010BD022010BD10B587
:103F90000024D0F82002FDF775FC30B1012801D0D3
:103FA000022801D0022400E00124204610BD10B5F3
:103FB0000024D0F82002FDF745FC30B1012801D0E3
:103FC000022801D0022400E00124204610BD2DE982
:103FD000F0411746044641B1D4F8140242698AB34D
:103FE00094F8FC01032842D043E0D4F8F4110025F2
:103FF00004F11400022933D1D0E902639E4207D9AB
:10400000F31A83609AB239462046FFF756FE12E053
:104010004068B0FBF3F103FB1101A1B9984212D340
:10402000D4F8F81188420ED2002211462046FFF73C
:1040300044FEC4F8F85100231A461946204600F001
:10404000ACF80DE012E0D4F81402C16829B194F87C
:10405000FC01032801D1204688472046FFF74FFE88
:1040600094F80002012804D184F8005201E02046AF
:1040700090470020BDE8F08170B51546044641B177
:10408000D4F8140282693AB394F8FC01032824D0CE
:1040900025E0D4F8F41104F5827003291FD1D0E98A
:1040A00002318B420BD95B1A83600846834200D3EE
:1040B00003469AB229462046FFF7F7FD0FE0D4F8F1
:1040C0001402016929B194F8FC01032801D12046AA
:1040D00088472046FFF72BFE01E02046904700204E
:1040E00070BD000010B5044619481A49C0F81C44B8
:1040F000C4F820020160082141600221816003218F
:10410000C16000218161C1610162FDF7F0FC08B16D
:10411000FCF7A2FD0022D4F820021823114604F572
:104120000874FDF765FB5823002280212068FDF705
:104130005FFB9823002281212068FDF759FBD823DB
:10414000002201212068FDF753FB002010BD000074
:1041500060080020005C00400A06D0F8200201F050
:104160007F0100EB411002D590F82A00704790F8CB
:104170000A02704770B51D4613460024D0F820028D
:104180002A46FDF7A3FB30B1012801D0022801D057
:10419000022400E00124204670BD10B50024D0F8B0
:1041A0002002FDF7B5FB30B1012801D0022801D073
:1041B000022400E00124204610BD70B50022044610
:1041C00040231146FFF7D6FF40252B4600228021D1
:1041D0002046C4F81051FFF7CDFF0120256284F876
:1041E000FC01D4F8180228B1D4F8140221794268ED
:1041F00020469047002070BD90F8FD1180F8FC111A
:104200000020704710B590F8FC11032904D1D0F8B4
:104210001412C96901B18847002010BD0174002043
:10422000704710B50024D0F82002FDF7FAFC30B139
:10423000012801D0022801D0022400E001242046F8
:1042400010BD70B5044600F50270054600F05FF839
:104250000120C4F8F401B4F80E02C4F8F80194F88F
:10426000082212F01F000AD001280DD0022810D019
:1042700002F08001204600F011F8002070BD2946B0
:10428000204600F0AAF8F8E72946204600F08CF90D
:10429000F3E72946204600F019F9EEE710B50024AF
:1042A000D0F82002FDF754FB30B1012801D00228DC
:1042B00001D0022400E00124204610BD10B50024E6
:1042C000D0F82002FDF7C8FC30B1012801D0022847
:1042D00001D0022400E00124204610BD90F8FC111A
:1042E00080F8FD11042180F8FC110020704710B502
:1042F0000024D0F82002FDF756FB30B1012801D090
:10430000022801D0022400E00124204610BD0A78D2
:1043100002704A7842708A78CB7802EB032242809E
:104320000A794B7902EB032282808A79C97902EB00
:104330000121C18070470246002011B1C2F8141259
:1043400070470220704710B5D0F8142202241AB129
:104350001268904700B90024204610BD70B50D4684
:104360001A4E897804463170012928D894F8FC0146
:10437000022802D0032822D105E099B10320616010
:1043800084F8FC0109E091B1606888420AD0C1B2AA
:104390002046FFF783FC317861602046FFF7D3FFAA
:1043A00002280CD02046BDE87040FFF7C0BC0220B8
:1043B00084F8FC0120466160FFF770FCF2E72946B3
:1043C0002046BDE87040FFF780BC0000720000206E
:1043D00010B5FFF773FF002010BD2DE9F041002755
:1043E0004A7801263B460A2A43D2DFE802F03C58CD
:1043F0004251420805422A27FFF718FD63E00446B0
:104400008888C8B9C888B8B9887800F07F0594F85A
:10441000FC01032810D084F8FE5129462046FFF7FE
:1044200000FF2046FFF783FC1DB1022084F8FC0149
:1044300049E084F8FC6146E020461AE0FFF78EFF71
:1044400041E0CA88012A14D190F8FC21022A02D046
:10445000032A0ED104E0012200F10801836014E078
:104460000122011D11E090F8FC21022A04D0032A48
:1044700002D0FFF72AFC26E0C660D0F8041209B18A
:104480000321C160022200F10C01FFF743FC1AE096
:1044900004464888012816D1C4F804620BE004469B
:1044A00090F8FC01022801D00328C5D148880128D2
:1044B00009D1C4F80432D4F8140282682046904727
:1044C0002046FFF734FC3846BDE8F08170B50D4654
:1044D0000446287800260979C0F34110012806D047
:1044E0006878A0B301281FD003283FD107E0D4F893
:1044F00014022946826820469047002070BD94F837
:10450000FC01022817D003282CD1688828B921B1D2
:10451000802902D02046FFF7C1FED4F814022946B4
:1045200082682046904713E094F8FC01022802D0EC
:10453000032817D103E0C9B180291BD116E0688890
:10454000A0B9480604D02046FFF721FDE5E703E0C7
:104550002046FFF7ECFB09E094F8FC01022807D0A5
:1045600003280BD029462046FFF7AFFB304670BD2D
:104570004806FBD02046FFF791FEF7E7080601F05A
:104580007F0004EB001501D5143501E005F58275B7
:104590002046FFF7E1FD00B10120286002222946F4
:1045A0002046FFF7B7FBE1E770B5054690F8FC0140
:1045B0000C4603280DD1207901280AD8D5F8140219
:1045C000826828469047E08830B92846FFF7AFFB5D
:1045D00002E02846FFF779FB002070BD704700001D
:1045E00000487047080800202DE9F047CB780A788A
:1045F00048F68F1433B1012B67D0022B08D0032B60
:104600000BD17FE030F82230234043F4007302E006
:1046100030F82230234020F822300A7830F8224047
:1046200048F68F731C4048F280052C43144320F851
:1046300022408A7A48F6BF794FF0040C4BF68F7A05
:1046400048F2C0044CF28007F2B30A7830F82260D6
:1046500048F280181E4046EA080620F82260CA8800
:10466000B0F8506022F0010291F8008006EBC80615
:1046700000EB4606C6F800240A89B0F8506022F024
:10468000010291F800800CEBC80C664400EB460672
:10469000C6F800244A78002A0A7830F822604FEAE7
:1046A00046467DD0002E05DA30F822601E403E439B
:1046B00020F822600A7830F82260760608D530F8B3
:1046C00022601E40264301E028E021E020F822601D
:1046D0000A7830F822401C403C4320F822400A78F7
:1046E00030F8223003EA09032B4320F822300978FE
:1046F00030F8212002EA0A022A4320F82120002073
:10470000BDE8F08730F82230234043F4C06382E7ED
:1047100030F82230234043F480637CE74A78002A53
:104720008A8822F001021BD0B0F850600F7806EBA7
:10473000C70600EB4606C6F800240A7830F8226067
:10474000760605D530F822601E40264320F8226008
:10475000097830F8212002EA090282F02002CBE732
:10476000B0F850400E780CEBC606344400EB44041D
:10477000C4F80024B0F850200C78062606EBC404D8
:10478000224400EB42060A694FF6FF7C06F580667C
:104790003E2A0CD9C2F34F14D20603D1641E00E0A6
:1047A00021E0A4B20CEA842242F4004207E0C2F302
:1047B0004F04D20701D0641CA4B20CEA84223260F8
:1047C0000A7830F82240640405D530F822401C40B5
:1047D0003C4320F82240097830F8212002EA0A02FE
:1047E00082F4405288E7002E05DA30F822601E403D
:1047F0003E4320F822600A7830F82260760605D51C
:1048000030F822601E40264320F822600A7830F8F3
:1048100022601E40264320F822600A7830F82230B9
:1048200003EA0A0383F440532B4320F8223009782B
:1048300030F8212002EA09025EE7002070472DE9E6
:10484000F04391F80A804C780A7848F6BF794BF625
:104850008F7748F2800548F2C0064CF2800C48F68B
:104860008F73B8F1000F2AD0002C30F822404FEAA5
:10487000444449D0002C06DA30F822401C4044EA77
:104880000C0420F822400A7830F82240640605D54E
:1048900030F822401C40344320F822400A7830F897
:1048A00022401C4044EA0C0420F822400A7830F8E8
:1048B000223003EA09032B4320F822301AE0002CAF
:1048C00030F822400DD0640605D530F822401C4057
:1048D000344320F82240097830F8212002EA090206
:1048E0000CE0640406D530F822401C4044EA0C0475
:1048F00020F82240097830F821203A402A4320F855
:1049000021200020BDE8F083002C06DA30F8224098
:104910001C4044EA0C0420F822400A7830F8224077
:10492000640605D530F822401C40344320F822406C
:104930000A7830F822401C40344320F822400A789C
:1049400030F822303B402B4320F82230C3E70020D0
:10495000704700207047012120F8401F002101808E
:10496000818001820846704730F8401F21F43D41A4
:104970000180002070470020704730B54C780A78DD
:10498000002C48F68F7530F8224048F2800312D090
:10499000640607D530F822402C4048F2C0052C436D
:1049A00020F82240097830F8212048F6BF742240D0
:1049B00082F0300211E0640407D530F822402C4028
:1049C0004CF280052C4320F82240097830F8212051
:1049D0004BF68F74224082F440521A4320F8212073
:1049E000002030BD10B50A7848F2800352B14978F2
:1049F000002930F8221010D048F6BF74214081F011
:104A000010010FE001884BF6BF72114081F4805114
:104A100081F010011943018007E04BF68F742140AB
:104A200081F48051194320F82210002010BD2DE997
:104A3000F0410D460646896995F801C00023AA7A1F
:104A4000022728690C4648F28008BCF1010F05D006
:104A5000814252D90446081AA8614FE0814203D925
:104A60000446081AA86100E0AB617AB1287836F8EC
:104A700020104906B6F8501007EBC000084406EBBA
:104A80004000C0F8004412D52A8911E0A3B2AA88D8
:104A90003046696900F0C5F8B6F85000297807EB90
:104AA000C101084406EB4000C0F800441CE0EA885D
:104AB000A3B23046696900F0B4F8687848F68F729E
:104AC00010B1012807D00FE0287836F820101140E7
:104AD00048F2C00205E0287836F8201011404CF268
:104AE0008002114326F82010287836F8201048F666
:104AF000BF72114081F0300165E0AB6106234FF6D3
:104B0000FF711AB1BCF1000F19D054E0B6F8500093
:104B10002A783E2C03EBC202104406EB400202F559
:104B2000806237D9C4F34F10E30630D001EA802009
:104B300040F4004001E001EA802010603BE0B6F85C
:104B400050002A783E2C07EBC202104406EB4002CC
:104B500002F580620BD9C4F34F105FEAC46C01D137
:104B6000401E80B201EA802040F4004008E0C4F317
:104B70004F005FEAC47C01D0401C80B201EA802073
:104B8000106068780028C1D001280AD013E0401EC8
:104B900080B2CBE7C4F34F00E307CCD0401C80B217
:104BA000C9E7B6F85000297807EBC101084406EBC5
:104BB0004000C0F80044287836F820104BF68F7279
:104BC000114081F4405141EA080126F820100020EC
:104BD000BDE8F08130F8401F41F43D4101800020E4
:104BE000704700000148FCF7FDBE0000600800208F
:104BF000B0F8440070475B1C00EB42005B0800F516
:104C0000806005D030F8042B21F8022B5B1EF9D10F
:104C100070470020704711B98021A0F84C10002087
:104C2000704710B55B1C00EB42005B0800F580602C
:104C300009D011F8012B5B1E11F8014B42EA042246
:104C400020F8042BF5D110BDFEE72DE9F0414F1EF1
:104C500000EBC7010446D1E9000115461E4637F0B6
:104C600006020DD02A463346FBF79EFC7F1E04EB5E
:104C7000C703D3E90023FBF7F0FB37F00602F1D1BD
:104C8000022F25D0042F13D0062F18BFBDE8F081C6
:104C90002A463346FBF788FCD4E90A23FBF7DDFB01
:104CA0002A463346FBF780FCD4E90823FBF7D5FB03
:104CB0002A463346FBF778FCD4E90623FBF7CDFB05
:104CC0002A463346FBF770FCD4E90423FBF7C5FB07
:104CD0002A463346FBF768FCD4E90223FBF7BDFB09
:104CE0002A463346FBF760FCD4E90023BDE8F041D7
:104CF000FBF7B3BB0022134610460149FBF7C6BCC5
:104D00000000F03F0122FBF730BD002213461046A1
:104D10001146FBF7BBBC02E008C8121F08C1002AFD
:104D2000FAD170477047002001E001C1121F002A2C
:104D3000FBD1704701490860704700001001002056
:104D40002DE9F04DC84A002490B0914205DA21F0D7
:104D50000043934201D805D120B110B0BDE8F04D19
:104D6000FFF7D0BFB1F5801F1BDA53EA000209D06C
:104D7000002911DA0120FFF7DDFF10B0BDE8F04D8A
:104D8000FFF7C3BF0220FFF7D5FFFFF7B3FF10B057
:104D900081F00041BDE8F08D6FF035043622FBF75D
:104DA000E4FC04EB2152C1F31308B049A2F2FF3333
:104DB000414401F4801282F07F6103EB225281F0C2
:104DC0004051009241EA08010022A94BFBF7E6FBA3
:104DD000044608F10200A74EC0F313000D467E44BE
:104DE000032867D2D6E900232046FBF7E7FC1ED153
:104DF0000098002802BFD6E9000110B0BDE8F08D90
:104E0000FBF7CAFC07460C469B4A9C4BFBF7CCFBC6
:104E100006460D469A4A9B4B38462146FBF7C4FB93
:104E200010B032462B46BDE8F04DFBF716BB4FF0F5
:104E30005532954B20462946FBF7B6FB0022934B93
:104E4000FBF7AFFB06460F4622462B461046194697
:104E5000FBF7AAFB32463B46FBF7A6FB064600984B
:104E60000F46F0B1FBF798FC80468A46824A834B96
:104E7000FBF79AFB32463B46FBF793FB22462B4659
:104E8000FBF78CFB05460C467D4A7E4B404651465F
:104E9000FBF78AFB10B02A462346BDE8F04DFBF72E
:104EA0007DBB0B4610B0324620462946BDE8F04D8A
:104EB000FBF774BB00224FF080432046FBF7CDFA8E
:104EC00002460B4620462946FBF7E0FB06460F4606
:104ED0000098FBF761FCCDE9040132463B461046E1
:104EE0003946FBF761FB0C9069480C9A40440190ED
:104EF00009910B461046FBF757FB82460246654870
:104F00008B46C8F151080B4608F5D7280321784491
:104F1000FFF79BFE52465B46FBF746FB0A905E4856
:104F20000D9152465B4604217844FFF78EFE099BA3
:104F30000C9AFBF739FB844601980D9B40EA080860
:104F400060460A9AFBF789FA83460891B8F1000F88
:104F50004EDD4FF0FF3220462946FBF706FC224685
:104F60002B46FBF721FB804600988A4660B3DDE9BB
:104F70000401414A414BFBF717FB099100905A4647
:104F800040465146089BFBF768FA32463B46FBF722
:104F90000BFB099B009AFBF760FA42465346FBF76E
:104FA00000FB22462B46FBF7F9FA04460D46DDE9E5
:104FB0000401334A334BFBF7F7FA10B022462B4675
:104FC000BDE8F04DFBF7EABA5A464046089BFBF7AE
:104FD00044FA32463B46FBF7E7FA42465346FBF7B4
:104FE000E0FA10B022462B46BDE8F04DFBF7D9BAE7
:104FF000009840B3DDE904011F4A204BFBF7D4FAC7
:1050000080468A465A4620462946089BFBF7C6FA40
:1050100032463B46FBF7C8FA42465346FBF7BEFA18
:1050200022462B46FBF7BAFA04460D46DDE9040199
:10503000134A144BFBF7B8FA10B022462B46BDE8D2
:10504000F04DFBF7ABBA0B465A4620462946FBF714
:10505000A5FA32463B46FBF7A7FA10B022462B468C
:10506000BDE8F04DFBF79DBA0000F07F645F0900DA
:105070000000F03F86060000763C7935EF39EA3DC6
:105080000000E0FE422EE63F5555D53F0000E03FD0
:1050900086EBF9FF1E0500001C050000CC4F98B000
:1050A0000024FC60FCF702FBFEF78EFBFDF764FFBB
:1050B000C848416941F0010141614069002200F0A6
:1050C0000100119011460B20FCF760FB0B20FCF750
:1050D00051FBFDF7EDFEFDF7A7FFBF484FF0804104
:1050E000C0E9001440F65F11C0E902410461FDF718
:1050F00071FC00B1FEE74FF4805611A9B648119635
:10510000FDF7B8FC00B1FEE7159415A9B248169456
:10511000FDF738FC00B1FEE7FDF7B6FFFEF704F837
:10512000AD4A00217832002002EB0013934623F8A9
:105130001140401C0828F7DB491C0829F3DBA7486D
:105140000121A74D81800560847184600223C460C1
:1051500083820561847584610422C461828405624E
:1051600080F8264084628A02C4628286056380F8E1
:1051700036408463CA02C463A0F84420056480F802
:1051800046408464C464A0F85460056580F85640C5
:1051900084654A03C465A0F86420056680F866103B
:1051A00084668A03C466A0F87420056780F87610C8
:1051B0008467CA03C467A0F88420C0F8805080F8D0
:1051C0008610C0F88840002100F1900C4E1EC0F8F7
:1051D0008C4001EB41000CEB00104FF07E52C4609C
:1051E000046044608460C0E90442C46106760462DD
:1051F00084624462491CC4620929EADBDFF8E48165
:10520000DFF8E4A1DFF8E4E1DFF8E4C1794E002142
:1052100001EBC100784A46F8208006EB8000491C6B
:10522000C0E9034CC0E90624744A4261C0E901AEFA
:1052300080F820400629EBDBFF208DF831009846EE
:105240008DF8303000201E234FF0080C6A4602EB28
:10525000C00188704B700DF830C0401C0628F5DB8B
:105260005E4840214438FAF786FFA2463C70202071
:105270000124CDF84080CDE90D04014622462846A0
:10528000FCF700FA0DA92846FCF714F95248FDF77F
:10529000E5FBFC704E484078002875D000240027BC
:1052A0003D46D84608EB051030F81400FBF742F8ED
:1052B0003946FAF76BFF6D1C0746082DF2DB6FF0DD
:1052C0000201FBF72BF801464D484E4A0844904234
:1052D0004CD24D48FAF7E4FF4FF07E51FAF7A8FFA1
:1052E00004EBC40556F82510FAF7A8FFFBF73BF8C6
:1052F000FFF726FDFBF74AF880460146FAF79EFFC6
:1053000007464146FAF79AFF06EB85052969FAF741
:1053100095FF81463846E968FAF790FF0746404610
:10532000A968FAF78BFF6968FAF730FF3946FAF790
:105330002DFF4946FAF72AFF01464FF07E50FAF753
:10534000AFFF3249FAF774FF07466969FBF744F883
:1053500008D83846A969FBF735F803D8012085F845
:10536000200001E085F820A0EF6107E004EBC40015
:1053700006EB8000264980F820A0C161641C062C41
:105380008DDB134981F801A011490878002881D0EC
:1053900081F800A000206B4600EBC00106EB810104
:1053A00003EBC00291F82040D470C969401C5160E1
:1053B0000628F1DB0948322219464438FAF7C2FEC2
:1053C0000649402244391348FEF7F8FB62E7000023
:1053D00030000020001002405801002094020020FC
:1053E000000C014000E09245FD5D3D3A16CF623968
:1053F000F1F1C633D4040020000070420000A04048
:10540000FFFFBFBFFFBF3F0500F07F4533938843D9
:1054100000409AC4E40500200000000000000000E5
:10542000010203040607080900000000010203044A
:1054300004FA97999999D93FAF788E1DC571CC3FE1
:105440009FC678D0099AC33F935555555555E53FAA
:10545000599322942449D23FDE03CB966446C73F3A
:1054600044523EDF12F1C23F000000000000000085
:10547000905400080000002014010000164D0008A0
:10548000A4550008140100206C110000264D0008EE
:10549000000000000612FF0A0002A10175081500B5
:1054A00026FF00954009018102954009029102C042
:1054B000040000204B0A0008470A0008510A0008AF
:1054C000000000000000000000001D0100000000BE
:1054D0006D3D0008A53D0008B13D0008CD3D000828
:1054E000093E0008453D0008793D00080403090411
:1054F0001201000200000040830452570002010222
:1055000003010000613B0008F53A0008E53B000894
:1055100000000000273B0008C33A0008D13A000809
:10552000000000000000000000000000493B0008EF
:10553000493B0008493B0008553B000800000000BB
:1055400009022900010100C0320904000002030021
:105550000000092111010001221C00070581034000
:10556000002007050103400020000000092111016F
:105570000001221C000000000000000000000000EC
:10558000000000000000000000000000000000001B
:105590000A060002000000400100000000A24A04C8
:0455A0000000000007
:04000005080000ED02
:00000001FF
